:200000000040002099D4000001C9011001C9011001C9011001C9011001C9011001C90110F1
:1C00200001C9011001C9011001C9011001C9011001C9011001C901103FC9011089
:20003C002DE9F04F8C4606461146ADF1440D1846069362460493E14620F0004522F00047E0
:20005C0023F00043059151EA030468A30E9300F08380684C944208BF002E7DD061A3664A37
:20007C000D93BA4208DBBA4200D12EB9AA4203DB9246AA4516D1A9B1984698E80C00494666
:20009C00304605F03AFF824689460598069998E80C0005F032FF0B4602464946504605F068
:2000BC002CFF3BE0574AB9F1000F4FF000080F9225D5524AAA4220DDAC4220DC504B2A1559
:2000DC00AB42A2F2FF320BDD002959D1C2F1140245FA02F303FA02F2954210D11A4607E02A
:2000FC00C2F1340321FA03F202FA03F3994206D102F00108C8F1020801E04FF00208002935
:20011C003ED15246AA4224D0AC420DD1002807D50E9803C84B46324607F084F88C46064661
:20013C006146304600F028BCB0F1804F05D14B460796494630460893D9E30F9981421FD187
:20015C00B9F1000F1CD44946304606F0A7FB00F013BC391B0E4302D10E9C00F00BBCBC42A7
:20017C0006DD002806D5059A014681F0004129E0002802D50D98014631E0059A034620E0F8
:20019C002CF00041B646FEB95246BA4203D0002F18BFBC4218D100280B46324605D50E986E
:2001BC0003C807F03FF80B460246B9F1000F08D53F1B58EA07000DD0B8F1010F08BF83F088
:2001DC00004319461646ACE74FEAD976761E58EA060319D10FF0F4FD2122D1A102600C46C8
:2001FC00C8E3C0460000000000000000000000000000F03F0000F03F0000F07F00004043E2
:20021C00000040410000E03FA8F10102164314BF0E9AC5A292E80003CDF82090C64ACDF884
:20023C001C80AA42C0F26B81B7F5801FA8BF002508DABFA20CCA704607F026FE6FF0340523
:20025C000F468646BD4905EB2755C7F313002746A5F2FF35814247EA000707DAB84981424A
:20027C00DABF6D1CA7F58017012400DC0024B54800EBC400CDF800E090E80C000A973946F3
:20029C000290704605F039FEDDF838C00B4602469CE8030006F0C6FF8346029E0D9890E8A0
:2002BC00000396E80C0000988A46394605F020FECDF824B05A4689465346064607F0E4FDD6
:2002DC000B468346019178100393424640F0005000EB844000F5002003460746002007F0BF
:2002FC00D3FD0B4602464946304605F001FE0646029890E80C0089463946404605F0F8FD58
:20031C000B4602460A99009805F0F2FD0024CDF800B0039B224607F0B7FD0B460246494697
:20033C00304605F0E5FD099A534607F0ADFD8A46019906465A4658460B4607F0A5FD8846CB
:20035C0081460B46024607F09FFDD1A20CCA0F4683464146484607F097FDCFA20CCA05F04B
:20037C00CCFD43464A4607F08FFDCDA20CCA05F0C4FD43464A4607F087FDCBA20CCA05F035
:20039C00BCFD43464A4607F07FFDC9A20CCA05F0B4FD43464A4607F077FDC7A20CCA05F05D
:2003BC00ACFD0B4602463946584607F06DFD8846009A0399814620460B4605F09EFD5346B6
:2003DC00324607F061FD0B4602464146484605F094FD039B0746894622462046194607F022
:2003FC0053FD09900FF268380A9198E80C0005F084FD0B97CDF830904B463A4605F07DFD13
:20041C000B46894603992246204607F03DFD8346534632460F462046494607F035FD98E838
:20043C000C0006468A462046494605F061FD0A9B099A05F05DFD0B4602460C990B9805F0C3
:20045C0057FD019B009A07F01FFD0B4602465146304605F052FD8146884628460EF0AEF951
:20047C000191009043464A463946584605F045FDB9A20CCA20468A4607F006FD06460D46D1
:20049C003B465A462046514605F032FD0B4602464146484605F02CFDB1A20CCA07F0F4FC22
:2004BC000B4602462946304605F027FD029A20320CCA05F022FDACA20CCA8946834651465E
:2004DC00204607F0E1FC05468A464B465A4605F014FD029A10320CCA05F00FFD019B009A89
:2004FC0005F00BFD019B009AA0460C46404605F0FFFC029A10320CCA05F0FAFC70E0A04A26
:20051C00AA42C0F227829F4ABA4200F3FF81BC421ADA002840F3B98095A08046FAE1C046BE
:20053C00000000000000F87F000000000000F0BF00000000000040430000E0418E980300AC
:20055C007AB60B00381101000E9A0CCA704605F0CFFC89A20CCA8A46044607F095FC8B4692
:20057C000546514620460B46024607F08DFCE1A20CCA884681465146204607F085FC024653
:20059C000B46DEA003C805F0B3FC5346224607F07BFC02460B46DBA003C805F0A9FC0B46C8
:2005BC0002464146484607F06FFCE0A20CCA07F06BFC0B4602465946284605F099FCDDA2FB
:2005DC000CCA894683465146204607F05DFC8A4605464B465A4605F090FC00200C4680463F
:2005FC0053462A4605F084FC0B4602464946584605F07EFC0646DDF8109005980D464246F3
:20061C004B46494605F074FC474623463A4607F03BFC059A8A4683464B462946304607F0F0
:20063C0033FC0B4602465146584605F066FC824623460E463A464046494607F025FC524680
:20065C0082468946009210464B463146524605F054FCCB4A0C460746A24231DDDF4924F038
:20067C000040814247DCDE48201857EA00050CD1214638464B46524605F03AFC024600989E
:20069C000B4631460AF038FD35D8DDF8348041E1EF4E454A287ECA3F65DBC9934A86CD3F9C
:2006BC0001411DA96074D13F4D268F515555D53FFFAB6FDBB66DDB3F033333333333E33FCC
:2006DC00A01A57EA000540F023810098ADA20CCA314605F012FC8B4605464B465246214647
:2006FC00384605F005FC0B460246594628460AF046FDC0F00D810F9824F00041884243DA66
:20071C000D9A0CCAB74BC4F30A504FF48017A0F2FE31002C47FA01F004EB0001C1F3130578
:20073C00C1F30A50A0F2FF3045F4801543FA00F3C0F1140021EA030345FA00F548BF6D4210
:20075C005046494605F0D4FB894682461DE0C0460000000000000840F5015B14E02F3EBE42
:20077C00FD033ADC09C7EE3F000000E009C7EE3F000000000000F07F44DF5DF80BAE543E3B
:20079C000000F043FFFFEF3F4546009C31464B465246204605F0B1FB8B4640464B46524690
:2007BC0005F0A6FB0B4602463146204605F0A0FB76A20CCA07F068FB76A20CCA82468946B4
:2007DC004046594607F060FB0B4602464946504605F093FB71A20CCA07460E464046594696
:2007FC0007F052FB33463A468B46044605F085FB00900B460246884607F046FB894682464A
:20081C0068A20CCA07F040FB68A20CCA05F075FB4B46524607F038FB66A20CCA05F06DFBD7
:20083C004B46524607F030FB64A20CCA05F065FB4B46524607F028FB62A20CCA05F05DFBB6
:20085C004B46524607F020FB024600980B46414605F04EFB89468246009841465B4622468C
:20087C0005F046FB0B4602463146384605F040FB044600988B464B465246414607F004FB0F
:20089C0052A20CCA0E4607464946504605F030FB0B4602463146384606F0C4FC009E8946DB
:2008BC0082465B4622464146304607F0EDFA0B4602465946204605F020FB0B46024649469A
:2008DC00504605F015FB4346324605F011FB02460E980B4603C805F00BFB01EB0552B2F570
:2008FC00801FA8BF111C02DA2A4608F00FFA02460B4615E0000000000000D03F555555556B
:20091C005555D53F000000000000E03F002815D50FF2C0080FF054FA2221016098E80C0086
:20093C000899079807F0B0FA26E0C046FE822B654715F73F000000604715F73F0FF040FAE1
:20095C0022210D9A01600CCA4946404607F09CFAFFF7E4BBBC4204DC002806DD1DA0044633
:20097C0004E0002848BF1BA400D40D9C0FF028FA2221016094E8030011B0BDE8F08FC046DD
:20099C0000009040FE822B654715973CEF39FAFE422EE63F396CA80C615C20BE0000000083
:2009BC00432EE63FD0A4BE726937663EF16BD2C541BDBBBE2CDE25AF6A56113F93BDBE1621
:2009DC006CC166BF3E5555555555C53F0000000000000040000000000000F07F00CC904073
:2009FC0000346F3FFFFF0F002DE9F84FDFF82485DFF82415DFF8246588F800000020086097
:200A1C000821DFF81C0501700D21418040F221318180DFF810050660B77EDFF80C050770CE
:200A3C00FF2FF17E417008BFFF29327F8270737FC370B57F0571F67F467115D1FF2A08BFE9
:200A5C00FF2B11D1FF2D08BFFF2E0DD1DFF8DC140A7802704A7842708A788270CA78C270D9
:200A7C000A79027149794171DFF8C41402780A70FF2542784A7082788A70C278CA700279D2
:200A9C000A714079DFF8AC244871DFF8AC14DFF8AC04057045708570C570057145710020E8
:200ABC000880DFF89C144E6BDFF898147078087031781170B078DFF890140870B168087990
:200ADC00DFF88814421E0A70F078DFF884140870F068DFF88014086008B90EF0D1FC30690E
:200AFC00DFF87444206008B90EF0CAFC2068DFF86C7401688847216851F8042F3846904775
:200B1C00DFF85C04DFF85C143862DFF85C0478627069086008B90EF0B3FCB069DFF84C1491
:200B3C00086008B90EF0ACFCF069DFF84414086008B90EF0A5FCDFF83CB4DFF83C649BF8A9
:200B5C0004000EF0C3FF306008B900F045B99BF80500DFF828740EF0B9FF386008B93068C4
:200B7C0037E19BF80600DFF818440EF0AFFF206020B930680EF0BAFF38682AE19BF80700DC
:200B9C00DFF800940EF0A2FFC9F8000038B930680EF0ACFF38680EF0A9FF206819E1DFF89D
:200BBC0094130A789BF80000DFF8DCA3921C504380B20EF08BFFCAF8080058B930680EF09B
:200BDC0095FF38680EF092FF20680EF08FFFD9F80000FEE0D7480078002800F00281BBF88E
:200BFC000210DFF8A8B3484380B20EF06FFFCBF8040078B930680EF079FF38680EF076FF53
:200C1C0020680EF073FFD9F800000EF06FFFDAF80800DEE0C74800780EF058FFDC49086082
:200C3C0080B930680EF062FF38680EF05FFFD9F800000EF05BFFDAF808000EF057FFDBF842
:200C5C000400C6E0BB480078182148430EF03EFFD04A1060B0B930680EF048FF38680EF0E6
:200C7C0045FF20680EF042FFD9F800000EF03EFFDAF808000EF03AFFDBF804000EF036FF26
:200C9C00C348A5E0AB48007840010EF01FFFC2490860D8B930680EF029FF38680EF026FF5B
:200CBC0020680EF023FFD9F800000EF01FFFDAF808000EF01BFFDBF804000EF017FFB448AA
:200CDC0000680EF013FFB349086882E09948007800010EF0FBFEB1490860F0B930680EF0C0
:200CFC0005FF38680EF002FF20680EF0FFFED9F800000EF0FBFEDAF808000EF0F7FEDBF84A
:200D1C0004000EF0F3FEA24800680EF0EFFEA14908680EF0EBFEA0485AE0864800780001DD
:200D3C000EF0D4FE9E49086018BB30680EF0DEFE38680EF0DBFE20680EF0D8FED9F800008F
:200D5C000EF0D4FEDAF808000EF0D0FEDBF804000EF0CCFE8E4800680EF0C8FE8D4908681A
:200D7C000EF0C4FE8C4800680EF0C0FE8B4908682FE070480078302148430EF0A7FE894ACA
:200D9C00106070BB30680EF0B1FE38680EF0AEFE20680EF0ABFED9F800000EF0A7FEDAF898
:200DBC0008000EF0A3FEDBF804000EF09FFE784800680EF09BFE774908680EF097FE7648BE
:200DDC0000680EF093FE754908680EF08FFE744800680EF08BFE00200EF052FB4FF480412D
:200DFC0091E03168012008713068057331684D73306885733168CD73306805740020316897
:200E1C004D743268D072A0223168487103213068C28001720720316848720020326890725E
:200E3C002821306841820121C176002031684877326882F85E0001203168087732684B4E43
:200E5C0082F85D00396808713868057339684D73386885733968CD733868057400203968B9
:200E7C004D743A68D072396848713A6890724FF4207039680022C88008818A7401213A688A
:200E9C00D17421680D732268557321688D732268D57321680D740021226855742368D972E7
:200EBC000121226811710021236859712168C8800881002088722168887405202268D07486
:200EDC003948016888473168054608688047326852F8041F0020884719481D4BC1681878AA
:200EFC000A88324902430A80284631490A6890470C21304800F060F8104800F061F800F04B
:200F1C0063F84FF4005198F80000BDE8F44F08F073BA00BF6E4F0020044F0020B63F0050D5
:200F3C00604E0020084F00202C4E0020E81200503C4E00207B4F00200C4F0020344E0020BB
:200F5C00681501006D4F00206B4F0020724F00206C4F0020F04E0020F44E00207C4B0020DE
:200F7C00E9FA0000F84E002009FB0000FC4E0020302000204C150020104F0020144F0020AB
:200F9C00184F00201C4F0020FC1F0020684E0020004F0020804E0020844E0020884E0020CD
:200FBC008C4E0020904E002020100020544F002024100020F84D0020DFF800F0E571011023
:200FDC00DFF800F01D6E0110DFF800F04D710110034938B53CC93CC00EC980E80E0038BD80
:040FFC0038130100A5
:20100000B41200001810000015AB0110FDB301106DC00110FDAE011099B5011000000000F7
:08102000000000002D0000009B
:20102800B01200003C100000B1C00110A9BF011067C0011069B80110000000000000000035
:041048003000000074
:20104C00B012000060100000BDC00110CDB30110D9BD01106DB3011000000000000000005B
:04106C00310000004F
:20107000000000009015002004000000000000000000000020000000E8C901103000000085
:2010900028100000981500200400000000000000000000000C000000D8CA01101800000060
:2010B0004C100000A015002004000000000000000000000024000000F0CA011018000000E4
:2010D00000000000A81500200400000000000000000000001000000018CA01102C000000F0
:2010F00000100000B8150020040000000000000000000000200000006CCA01102400000054
:20111000FFFFFFFFC01500200400000000000000000000002800000090CA01102400000013
:20113000FFFFFFFFC81500200400000000000000000000001400000008CB01101800000092
:20115000FFFFFFFFD015002004000000000000000000000058000000B4C901103400000060
:20117000FFFFFFFFD81500200400000000000000000000001000000020CB0110180000002E
:20119000FFFFFFFFE01500200400000000000000000000001C000000B4CA0110240000005B
:2011B000FFFFFFFFE81500200400000000000000000000003800000044CA01102800000083
:2011D000FFFFFFFFF01500200400000000000000000000005400000078C901103C000000F8
:0811F0000100000034150100AC
:0411F80001000000F2
:0411FC0000000E00E1
:0412000000000F00DB
:0412040032000000B4
:0412080001000000E1
:04120C008C1400201E
:0412100000020000D8
:0412140000000000D6
:0412180001C90110F7
:04121C0000000000CE
:0412200000000000CA
:0412240008000000BE
:0412280000002200A0
:04122C008812002004
:0412300000000000BA
:0412340000000000B6
:0412380008000000AA
:04123C004C1400202E
:0412400000000000AA
:0412440000000000A6
:04124800080000009A
:04124C00000000009E
:04125000000000009A
:041254000000000096
:041258000000000092
:04125C00010000008D
:041260005413002003
:041264000600000080
:041268000100000081
:04126C00F411002059
:04127000000000007A
:041274000000000076
:041278000002000070
:04127C00000000006E
:02128000290043
:02128200010069
:02128400250043
:02128600300036
:02128800310033
:02128A002D0035
:02128C0001005F
:01128E00015E
:0812900003000000A814010096
:0812980000000000000000004E
:0412A0000000010049
:0412A4000000030043
:0412A80013C401105A
:0412AC0065F80000E1
:0412B000B812000070
:0412B400B81200006C
:0412B8000000000032
:0412BC0058150020A1
:0412C000B7F900007A
:0412C4002000000006
:0412C800FC13010012
:0412CC0060120100AB
:0412D00029C101101F
:0412D400EBE000004B
:0412D800C3E300006C
:0412DC00A1C7011095
:0412E000A3C701108F
:0412E4000000000006
:0412E80023140100CA
:0412EC0038100100B5
:0412F0005010010099
:0412F40020100100C5
:0212F8000200F2
:0212FA000900E9
:0212FC000100EF
:0212FE000000EE
:0113000001EB
:0413040045F90000A7
:041308007DE0000084
:04130C0035EF0000B9
:0413100029E30000CD
:04131400B5E0000040
:041318003DD30000C1
:04131C00C1AC000060
:04132000FFFB0000CF
:0413240009C90000F3
:0413280015C70110D4
:04132C0025C70110C0
:201330002DE9F04FD54C04F10C012046ADF13C0D0BF0C0FD04F13005002128460FF0D2F89E
:20135000CF493222012304F1780025610BF0A6FF4FF0804000210BF05FF9CA4E1F22062365
:2013700060603146102005F0D7F95020ADF8200001258DF82D500027ADF81E7029468DF886
:201390002E700DF12D02ADF824704FF44870ADF822004FF47A70ADF8260040F2053002F026
:2013B0009DF940F2063002210DF11E0202F096F94FF44270152104F14C0202F08FF940F243
:2013D0000730072104F1200202F088F94FF4447029460DF12E0202F081F940F2113002217E
:2013F00008AA02F07BF940F2123002210DF1220202F074F940F21330022109AA02F06EF909
:201410004FF4457002210DF1260202F067F904F161003A461523CE490090102005F07CF9DA
:20143000314610200622A02305F076F9314610200722A02305F070F9314610200822A02321
:2014500005F06AF9314610200922A02305F064F98DF831708DF833700DF12F0000902E46BE
:201470008DF82F60CB4D8DF830604FF480628DF8326033462946102005F04EF90CA840F2A5
:201490000242009033462946102005F045F90DF1310040F20342009033462946102005F0DA
:2014B0003BF90DF1320040F20642009033462946102005F031F90DF133004FF4836200908E
:2014D00033462946102005F027F9C04910204FF0FF3205F021F9C64910204FF0FF3205F073
:2014F0001BF9DFF8108310201323C44AC24E00904146019605F010F9C148007880000EF02F
:20151000CBFCC04D0146A96069B14FF6FF700CF0E5FDBD49102005F1140200901123019153
:20153000414605F0F9F8022601208DF8356003238DF8340004228DF83630B4498DF8372002
:2015500004AE38460A68097932600DAA3171012107F0F8FE01200DF13502014607F0F2FED9
:20157000022001210DF1360207F0ECFE032001210DF1370207F0E6FE0420052104AA07F0BA
:20159000E1FE04F118006860C44D69782878A1B904F1140129620DF045F905F154060097E4
:2015B000024605F14400019005F11C030296BC490393AB78102005F0AFF8C84904F12802A1
:2015D000102005F0A9F820780DF02CF9C4490246102005F0A1F820780DF024F9C149024664
:2015F000102005F099F8C049102005F095F860683946B7A30A460DF0A0FA0CF04FF804F1AA
:201610003C0630460EF000FA0125384684F8445031460CF063F8A06000280CBFBCA3C2A3D1
:2016300060683A4629460DF088FAA068C24E29462A46804635700AF06BFE40460AF012F914
:201650000128FAD040460AF00DF90128FAD0F9200221BF4D30700A46777040460AF058FE19
:2016700090B140460AF0FEF801280DD13078F82804BF0120011C08D006E0C04608020020E5
:2016900069FA00008DE200003946606800290CBFBBA3C1A33A4602210DF04FFAE068C24A2E
:2016B00000214FF0FF330EF019FF81460DF12A0100200CF0EBF99DF82A0001210DF12B0276
:2016D000401C8DF82B00002007F03CFEB9F1000FE4D0002006900BA906AA07A80CF050FE1D
:2016F000002840F08080BDF81C7001208046102F72D120789DF82C1088426DD1069F388802
:201710004FF6FF71814267D03B78913B3BD01F3B62D1787816281CBF0020031C05D140464F
:201730000DF0AEFAA84843460760E06993B9397960687E2904D07F2919D13989BAA301E0F8
:20175000397ABDA30091002205210DF0F6F90EE07DAF000088B94FF6FD70BB49BB4A0090FB
:201770000023102004F0D8FFC3B2E0692BB1397907F108000EF0AEFE2EE040F002004FF0C6
:201790000008E06128E078780E3805D0801E1FD022E0C046153E0000B88842F203018142BA
:2017B0001AD1B9680878B8B9491C04A80A684968026004AF41603878C34904AA00F0FD00DB
:2017D0003870102004F0A8FF06E0C0465DEE00000820002104F0FAF8069820B1B8F1000FF9
:2017F00001D00EF01AFB5FEAD970C0F0FB80F3E001F10000EDE90000841401005C0900207F
:20181000694F0020000C002090140100FD140100206907460EF05AFE874208BF002702D048
:2018300087680CF075FC381C00F0D6803888401E00F0CC80401E00F09680801E56D0001F01
:2018500030D0083840F0C580E069800821D35E480268F2B15088117908320EF033FE8046BA
:20187000B8F1160F04D0B8F1040F01D00DF008FAE069B8F1000F0CD130F00200E06108D110
:201890007149724A4FF6FD7001230090102004F043FF78680CF03CFC9BE0C04678050020C4
:2018B000EBD500007868007838B1BB480090606804210022B9A30DF040F940F20E300AA9C0
:2018D00005F0AAFFB448BDF82820B2490023DCE7526F7720547261636B65720015F3000054
:2018F0005188011031810110C5AB00107A68BB7861681078002B2DD0012B22D0022B1DD0E5
:20191000032B2ED1002808BFA8A324D0ACA31DE04572726F7220496E697469616C697A69D0
:201930006E672049324300C049324320496E697469616C697A656400960F002088B9A6A381
:2019500009E0002808BFA8A305D0ABA3009002E04C0F0020ADA30846002202210DF0EDF87F
:201970007A68104696E7B878D4F80480F0B1801E2FD102200EA90CF089F8A8A31BE0C04641
:201990004572726F7220496E697469616C697A696E6720494D5500C0494D5520496E6974B8
:2019B00069616C697A656400010000C000200EA90CF06CF89CA39DF838000421002200905A
:2019D00040460DF0BAF804E02C200020B87803F07BFA38460CF09CFB20690EF06FFD0028AE
:2019F0003FF416AF5FEA5900FFF458AE0EF03CF9A06809F037FF01287FF450AE8E48807872
:201A1000032802D13178FB2922D002287FF446AE3078F12840F0A380B078072840F09F80AE
:201A30007079A8709BE0C0464D54552053697A653A20256400C046C046432056696F6C6116
:201A50007465643A2025640079CB000009F600003079F178B7787378000640EA014040EA4C
:201A70000720377B43EA0001F37AE96343EA0721714BB27B96F8079096F809E096F80AC064
:201A9000777B93F801A047EA02201F463A784FF0000842EA0A2209F003074EEA0C236FF343
:201AB000DF32A2F1040BBBF10F0F0FDB96F810A0F27BBBF1110F42EA0A2A08DB96F81280D5
:201AD000727C42EA082802E095B40010C2467279012A40D0042A39D0022A32D0032A2BD0B6
:201AF000052A20D0082A1ED0112A1AD0132A15D01E2A06D0F12A32D1B9F1070F2FD16046AE
:201B10008FE785F801C006F10B01002011F8012B2B6CC254401C0928F8DB20E085F800E03F
:201B30001DE028861BE0EF85AB84E9842885A5F82AA0A5F82C8012E06F84AB83E983288457
:201B50000DE06F83AB82E982288308E06F82AB81E981288203E06F81AB80E9802881B5F97C
:201B7000080008210CF0BEF807460CF047FA8DF8390001210DF13902032007F0E3FB384659
:201B90000CF03CFA0090606800212AA30A460CF0D4FF83E5C5E3000040E2010050617373D4
:201BB000636F64653A20256400C046C0426F6E642073617665207375636365737300C04660
:201BD000426F6E642073617665206661696C65643A20256400C046C0426F6E64696E672094
:201BF000737563636573730050616972696E6720737563636573730050616972696E67200F
:201C10006661696C3A20256400C046C050616972696E672073746172746564004368617210
:201C300020333A20256400C04368617220313A20256400C0256900C0840F00202DE9F04FD6
:201C5000D24C04F118012046ADF1340D0BF032F9CF4D00264FF6FF700123667032462082D3
:201C7000294604F1A4000BF019FB0223324604F1C80029460BF012FB0423324604F1EC00EC
:201C900029460BF00BFB4FF0040A04F1440810224046314684F802A009F0BAFC04F15409E8
:201CB00010224846314609F0B3FC04F11C073E6004F10A052E70E671267207206072CDF830
:201CD0000080DFF80083022210200346414604F023FD102003224146CDF80090034604F074
:201CF0001BFD1020524641460097134604F014FD4FF0080B4FF0030905F12A00079005F12E
:201D10007900089005F11E00099005F15A000A9024350B9517E06078A28FE18FB4F8405066
:201D3000B4F8423006280ED1ADF80A20ADF80C10ADF80E50BA48ADF810300EF0C5F8012012
:201D500002A909F057F9A069B44A31464FF0FF330EF0C4FB071CF6D0059606A80DF11A0188
:201D700005AA0CF00DFB002840F0C081BDF818102078102940F0B6819DF81A10884240F039
:201D9000B181059D29884FF6FF728A4200F09F812B78A23B00F082812E3B40F0A381A978CB
:201DB000B046002900F03E81891E00F00D81491E012940F2D980891E00F09C80491E6FD0AB
:201DD000491E5CD0083900F05981891E40F05C8194F83A30A888052BADF8080047D0012066
:201DF0008DF812008E480EF06FF894F83A0001281ED004281CD003280DD002280BD0059862
:201E1000C188ADF80A100189ADF80C104189ADF80E10818927E0A08FE58FADF80A00B4F8C3
:201E30004030ADF80C50B4F84210ADF80E301AE0A08FE9888842D8BF081CADF80A002989C0
:201E5000E08F8842D8BF081CADF80C006989B4F840008842D8BF081CADF80E00A989B4F8D9
:201E70004200884200DC0846ADF8100001E08DF81260AA49102002AA04F04EFC04E1A848AD
:201E90000EF022F86B78002B40F0FE80E88860822889A0826889E08261480DF0EDFDF3E083
:201EB000AA88B649102004F037FC07984146062209F0AEFB6682A682E682A87920735848CE
:201ED0000EF002F896480DF0FFFF4FF001084FF6FF702379208253B9A879082812BF84F83D
:201EF00001A00520607040460DF0E6FDCCE084F80190C9E06B787BBB291D07980A680260A2
:201F1000898881800623637068892082E8896082288AA082688AE082E878E07294F83A001D
:201F3000012818BF02280BD19A4910201F2204F0F3FB4FF47A7180B2414339480BF046FFB0
:201F5000688900909249CDF804A0EA7810202D1D2B4604F0E1FB9AE06878312840F08B80A1
:201F7000E67084F801A092E06B78002B40F08380A878E3896178032818D0E07825794BB9B9
:201F9000012814BF2671E6700BE0C04678050020C9FA0000054304D07F4819460BF016FFA5
:201FB00061780729DDD10620607070E0062907D0E578002D08BF84F8019068D00220F3E77C
:201FD0000720F1E7F7F200006B78002B53D1EB78617893B902291DD007291BD0062902D11A
:201FF0002079012816D1032914D06B480DF044FD80B901200DF060FD0CE00CF013FC024634
:20201000A07962490090089843460190102004F083FB68706D78002D2DD135E0070000807C
:20203000400600206B7833BB5C485749009002221020034604F070FB59484A46524900902D
:202050001020034604F068FBED1C099829680160A98801238180207863700CF0E3FB024621
:2020700001230A9D6079494900901020019504F053FBC0B258B184F801B008E0AA88414936
:202090001020052304F048FBB8F1010F2AD1256A45B32D6835B36078A84723E06879132803
:2020B00020D12889012808D1607B022805D11C480DF00AFF0CF096F914E0364910200522D2
:2020D00004F02AFB81B216480BF080FE0AE06888C00B07D3334852462B49009013461020AE
:2020F00004F01AFB059808B10DF097FE2579E078790830D355EA00032DD0204600788DB902
:20211000E179257A8DF808100B9A8DF8095013680DF10A052B609288AA8005E0051601102E
:20213000640600208DF80890617A8DF81010A17A8DF811100CF076FB1149024602AB1020BB
:2021500004F0EAFA38B1256A84F801B01DB12D680DB15846A847B80803D31349304608F0E4
:2021700049FFF808FFF4EFAD607B401E3FF4D3AD401E7FF4E8AD0CF035F9E4E575CE0000F0
:2021900059440110C117011099800000094501107184000081F600001C060020BC05002091
:2021B000CC05002094050020B20500202DE9F84FD84CA178FF2904BF00200DF067F9A07874
:2021D0000DF07CFB044604F1680504F190062968086810B10022E2830CE0A87B002804BF01
:2021F000A97E002906D13078002801BF217F0129608CE0832189E08B4118491C61812046E4
:202210000EF058F901281EBFC3480178012904D120890022401CE28360814FF6FF77A87E88
:2022300001280DD1AA8B618920890EF03FF938B1218960894A1C93B298421BD0A88B0FE07B
:202250003078012816D17288618920890EF02EF980B1218960894A1C93B298420AD07088E9
:2022700092B2904206D03818608180B20EF01AF93F18E78304F5967999F8040020B1208916
:202290000021401CE183608104F12E07A87E01283ED12289A88B521C92B2904238D1608198
:2022B00004F1860120460EF0F9F8A88C6189608400202077E083E0894118A181A88B218960
:2022D0000EF0F0F88046B988288C6A8C01FB0808E88C8A4204BF3989884202BFA98CFB8843
:2022F000994207D000090090AB8CA179520800200EF0D0F8A87F3870688CB880A88CF8804B
:20231000E88C388120460EF0C1F80220A87601E0B7F80480B4F81EC02268804ED2F80CE077
:202330000CF1010000FB08F340F6C41000FB03F18E44C2F80CE03668DFF8E4E13678BEF88A
:202350000080784AB609032E11D1D67BF60748BF4FF000080BD408F101081FFA88F6012E16
:2023700012BF668AB9F8066006F2DC5600E0668A5E434FF4C87AB6FBFAF6761C6661AEF8B5
:202390000080A3614FF0180894F806A084F820C008FB0AFADFF890C1DCF800E023680EF14F
:2023B000080656F80A601E610EF1080694F806A008FB0AFACDF800A0D3F80CB0D4F814A016
:2023D000ABEB0A0ADDF800B046F80BA094F806A008FB0AFA56F80A609E600EF10C06A379B9
:2023F00008FB03F30EF10C0EF65C06F0F00646F002060EF803604FF0000ADCF800E0A679BA
:202410000EF1020308FB06F623F806A0474BA6791B68760103F1140AD4F814B05AF806A0A3
:202430000AEB4B0A03F1140B4BF806A0AD7E022D0CD1A5796D0103F1140697F800A0765977
:2024500000FB0A6603F1140A4AF80560BD88D27BA779D60739D508FB07F70EF10806F25952
:20247000A2F5A862F2510EF10807A27908FB02F2BA582768511A3961BA6003F11402A17964
:20249000490103F11407525802F5F6627A5003F11401A27952018958C9F800106843244ACE
:2024B000156BA779296803F11C067F01401AA0F51670F0511F49A07903EB40100B78012B21
:2024D0000EBF0122916A4A7811E003F114017F012A46C9594243A1F5E661A2F516729142DF
:2024F000DCD3082120460DF0CDFF01200FE0C272A179DCF80000104A08FB01F1084421686F
:2025100048600720107020460DF0B8FF0020BDE8F28F00BF684E0020784F0020084F002009
:20253000482000205C4D0020804E0020844E002068150100734F00206F4F0020BB482DE903
:20255000F84F0025BA4CB849056094F8E200002800F06581012800F02F81B64E02283CD024
:20257000032840F05C8151F8250CD4F8B8100029A0F5C060C4F8D400B8BF49420028B8BFF6
:202590004042814226DA4FF08057D7F8A4014568B4F8BC0030214FF47F42082300903046C1
:2025B000A847D7F8A4014568B4F8C00004214FF4F802122300903046A847D7F8A401B4F8E3
:2025D000D070456820214FF440620A2330460097A847012584F8D8501CE151F8258C0DF0F1
:2025F00019FB2F4600B901273946934F38680028FCD0B146012609F10409D9F82CA03E600C
:2026100009B10DF00DFBCAF30720C4F8BC000DF001FBAA4600B9B2463B68002BFCD0D9F88A
:2026300000B0BAF1000F3E6001D00DF0F9FACBF38440C4F8C0000DF0EDFAAA4600B9B2463E
:202650003B68002BFCD0D9F81C90BAF1000F3E6001D00DF0E5FAC9F38120C4F8D000B8F5B8
:20267000C061C4F8B81000F09C8094F8D80068B9C4F8D410D4F8C000C4F8C800D4F8BC706C
:20269000C4F8C470D4F8D030C4F8CC30D4F8D400D4F8BC30002854BF02226FF0010204F1A8
:2026B000C8010F6800EB40008018421000EB927207EBA2000860D4F8C810C4F8C43000294D
:2026D0001CDD1E293CDDD4F8CC0030B93429B4BF15391E21C4F8C81025E02A29BABFD4F882
:2026F000C8000B381E20C4F8C800D4F8C4003F28B4BF401C3F20C4F8C4001FE0D4F8CC00C1
:20271000032812D011F10B0FC6BFD4F8C8000B30301CC4F8C800D4F8C4000028C4BF401EC3
:20273000051CC4F8C450032508E011F1150FC6BFD4F8C8001530301CC4F8C800C4F8CC505C
:202750004FF08057D7F8A401B4F8C43030214FF47F424568374800930823A847D7F8A4019D
:2027700004214FF400321123456832480096A847B4F8C860D7F8A40104214FF4F8021223F0
:2027900045682C480096A847D7F8A40120214FF440620A23B4F8CC60456826480096A84744
:2027B00001E084F8D85040F2FF50404502D8801C40452FD2082030E051F8251C1F4F4BF215
:2027D000F5204843060A3868C0F3814001280CD11B480068006880470BF01CF90DF026FAF8
:2027F0003111C010484306EBE03694F8E50030B91448006820F07F403618760801E084F80F
:20281000E5501148310C0660012741600F4D8760287808B90B2000E0052084F8E40003F087
:20283000EBFDBDE8F88FC0462D400C402C500C40380E002000A00C4000800C40B43F00508C
:20285000EC010010102009403C600C40B51301002DE9F04F09AFADF13C0D08900A92388859
:2028700009911E46ADF81800101C08BF002000F06C81017800274FF0010B401C4FF0FF39DF
:20289000B846DA460A9058E1252940F04D810178401C0A902D2918BFADF8068004D10178D6
:2028B000ADF806B0401C0A9030291CBF4246434604D10178401C5A465B460A902A29CDF8D5
:2028D00000804D4617D1049330680A9BCDF80890C01C20F00300001D306050F8044C1978F7
:2028F000002C009403F101000A9018D5ADF806A06442009413E044460AE0600000EBC40091
:202910004018A0F130040A9801780094401C0A90302901DB3A29F0DBCDF8089004932E2937
:2029300029D10178401C2A290A9011D13168CDF80880C91C21F00301091D316051F8045CA9
:20295000002D48BF454601782B46401C0A9011E0454643460AE0680000EBC5004018A0F1D8
:2029700030050A9801782B46401C0A90302901DB3A29F0DB02930AB1224604926C2904D076
:202990004C2918BFADF8048004D10178ADF804A0401C0A900BA8CDF80C800FAB0790642943
:2029B000059379D0692977D0BDF818C0752965D0782961D06F295DD0702946D0632936D015
:2029D00073291AD00A98401E0A900998012812D961490C68B5F1FF3F03D0A84288BF6D1C83
:2029F00000D8099D029508A80AA932466B46A0473F18039865E0454617E03068C01C20F002
:202A10000300001D306050F8040CBCF1010F014608B94FA0014607910CF082FF0390B5F155
:202A3000FF3F4FD0A8424DD9039528464AE03068C01C20F00300001D306010F8040C8DF818
:202A50002C005D46039558463CE0082035680490E81C20F00300001D306050F8041C082296
:202A700010230FA809F0A6F9401E079040210170079823E0082302E0102300E00A23306876
:202A9000C01C20F00300001D306050F8041CAA42BCBF2A1C04920DE03068C01C20F003006B
:202AB000001D306050F8041CAA42BCBF2A1C04926FF009030FA809F07DF907900599081AC6
:202AD0000390009C241ABDF8065000945DB906E008A8202109AA0CF05AF87F1C009C641E33
:202AF0000094F5D50398401EB0F1FF3F03900FD1BDF8060001281CD10098401E009018D4DA
:202B100008A8202109AA0CF042F800987F1CF4E70798017809AA08A80CF039F80798401C1A
:202B3000079003987F1CDEE708A809AA0CF02FF87F1C0A980178401C0A9000297FF4A4AED3
:202B5000089808B14146017038460FB0BDE8F08F286E756C6C2900C0401501002DE9F84F34
:202B70000C46E00788B00BD50CF096FF28B100218160AC48006800B1804784F001004EE110
:202B9000A00710D5002006900021049000230290009005910393019101223C200DF06AFC49
:202BB00084F002003BE11D2560079F4E9F4F40F18A800020079083469D498878FF2804BF64
:202BD00000200CF063FC386890F8A0000CF076FE80463868C07A98F82691022818BF03281F
:202BF00008F5907A06D106F10D000DF03FFC08B906F1070B514648460DF034FC88B33868B4
:202C1000807A002818BF012804D1314650460DF025FC04E05246494630460DF01BFCFF28C6
:202C300034D005FB00F906EB090506225146E81D0CF05AFD16F8090040F00209E81D079083
:202C500006223868817E01F0010188F8261105F1010A386800F1140108F590700CF044FD12
:202C700014E0514648460DF0F1FB78B15246494630460DF0EFFBFF2808D006F10D01454309
:202C900048190DF0F3FB08B149F0020908F12C004B4601780691418909090591B8F82220B1
:202CB000079904920122C088029140080390CDF804B0CDF800A0002098F806100DF0DAFB7F
:202CD00084F00400ABE0200610D50020069000210490002302900090059103930191012245
:202CF0003B200DF0C7FB84F0800098E0E0043BD5F11D06F10D000DF0A5FB38684179012917
:202D100023D1017A012918BF04291ED1C17A022918BF032919D1817E00F1140230460DF04B
:202D300099FBFF2811D04543354405F10D000DF09DFB50B9E91D05F10D000DF083FB386821
:202D50000622E91D14300CF0CFFC3A493A484A6800784FF480510AF0DBFB10B18E2008F0B0
:202D70005BFB84F480505AE0A00505D50CF052FF324901200860FEE7610504D504F087FFFD
:202D900084F480604BE0600405D5812008F044FB84F4804043E0A00440D5294D286810B1AF
:202DB00000200CF073FB274E4FF0FF3028600DF045FB3168244D51F8202F6846904723483F
:202DD000416A826A036B0091019221490291C16A0A68016AADF8101003921978002904BFDE
:202DF0005868002805D19A68002A04BFD868002806D02970596869609868A860D868E86025
:202E100029463568134A2E6813486B46B0471349086003F001FE84F4005000E0002009B069
:202E3000BDE8F08F204F0020AC450020104F0020684E0020784E00206E4F0020FC00204347
:202E5000044F0020F04E002068450020C012002099FA00002C4D0020001E0020EC4E00200E
:202E70002DE9F84FB34D686884B0019020B905B0BDE8F04F0DF0DEBA0178DFF8BC82AF4EBE
:202E9000DFF8BC92DFF8BCA201291CBF0229042946F2A81741F64C5B05D0402918BF8029D8
:202EB00000F097803DE10CF0F7FE0028FAD00198007804F01DFC0090446814B900200CF0B7
:202ED000E5FA9AF8010000285DD001F0F3FC0CF0F5FC02900168009801914F6809F044F83D
:202EF000022827D000990A78012ADBD1964B19680A7A19F80230337018B90DF097FA5844E8
:202F1000A0602069C17E01F0EF01C1762069C17E41F08001C1762069C17E01F0F00141F035
:202F30000201C1768948B96841182069C161012100989DE0019886490278802A12D1082380
:202F500033700878012803D09AF80110012903DD39690120C87210E0D8F828003A69017894
:202F7000D1720AE0072030700978386901290EBF0122D8F828104A78C272029881790198E6
:202F90008AF80210C8E0009800288BD00199009A0078914205D101281CBF00200CF076FAE5
:202FB00015E0012840F0BD80674801680A7A19F8020030700DF03AFA3918A0680DF032FA74
:202FD00018B90DF033FA5844A0600120A8700098A2E09AF8010000287AD001F06BFC0CF09E
:202FF0006DFC04462068029047689AF802000CF065FC03900CF056FE10F0070F3DD0A8782E
:2030100004F076FB0190416801980091029908F0ABFF022831D001990A78012A2AD14A4B98
:2030300019680A7A19F80230337028B90DF0FEF983440098C0F808B000990869C17E01F0B7
:20305000EF01C17600980069C17E41F08001C17600980069C17E01F0F00141F00201C17683
:20307000009AB968394841181069C16101210198A97051E000200CF009FA0398A04225D07A
:20309000029833490278802A12D1082333700878012803D09AF80110012903DD3969012049
:2030B000C87210E0D8F828003A690178D1720AE0072030700978386901290EBF0122D8F8C2
:2030D00028104A78C272A0798AF80200029823E00CF0E8FD10F0070F29D0A87804F008FB71
:2030F00004462078D4F80480012820D116490A68107A19F8001031700DF098F93918D8F8A8
:2031100008000DF08FF920B90DF090F95844C8F808000120A870204605B0BDE8F04F06F021
:203130002FBA05B0BDE8F04F00200CF0AFB905B0BDE8F08FFC1F0020681501006F4F002009
:20315000289A0110684E0020104F0020F0D8FFFF734F00202DE9FE4F0F469C4C0168E16243
:2031700041688068E0609A48A16080479948E16A0160A168DFF87CB24160E168DFF8708276
:2031900081609549002FA246C1606AD03D68E8788DF8080028798DF8090002A80DF03EF94F
:2031B000A86808B18D490160E86808B18C4901608C4C287820706878BE686070A878B268A8
:2031D000A0703178A2607368E1702E696360EA6926627968E2620868E06068697B68606278
:2031F000A8699E68A062286A20631EB900200CF04DF900E066617868C06818B900200CF0BC
:2032100045F900E0A0617868006918B900200CF03DF900E0E0617868406818B900200CF07D
:2032300035F900E0206128692062F86881680E6806B96E4E6C494FF001094E60C66881F84F
:2032500001902EB900200CF021F9F868454601E045462E6000685C46FE68A0617068E06141
:2032700006E000200CF012F94FF001095C464546286861494668621C04F114035020B047E2
:2032900010B1286880688047DAF8080080475C4F0026834669467E7058483E700422206151
:2032B00030460BF0B7F80098B0F5801F0CD020B90BF0D6FB04F0D4FB08E00AF0EFFA0CF0F7
:2032D00025FB0420788001E00BF0CAFB4D4FB0462868C7F808808069A660804778604A4878
:2032F000468080F8009014200CF0F6FBFF211422A0620CF0F1FDE01CFF2102220CF0ECFD68
:2033100014200CF0E9FB414908600868142231460CF0E2FD3046FDF76DFB48460AF02EFC1B
:203330003B480188FF2906D1022101807822001D31460CF0D1FD03200DF06CF804200DF031
:2033500065F805200DF05EF806200DF057F8072009F048FA2F4E0820307006F124000DF057
:2033700049F809F059FC06F1360705200A213A460BF0B9FF38B14046C0F10901401C07F872
:20339000011B0A28F8DB3078102106F03BF82F68214909200DF10A0201AB7D68087010208D
:2033B0004146A847A06ADAF80C10E2690A270A309DF80A307F1E00F8013BF9D1921E584621
:2033D000E261884702F0E0FBBDE8FE8F1810002041490010F84400200005010095E900000A
:2033F00069F60000C01200207015002043BA00001C160020B4130020C9EE0000C9F600001B
:203410000C160020F01F00200816002040200020B41000208C0A0020542000202DE9F84FE2
:20343000DFF8B4B20F460546F80B80F01F81DFF88482B80880F01081A14EDFF888A2B80F37
:2034500080F0BE80B80B80F0AB803809C0F02A8108200CF0FDFB002840F09D8080200CF087
:20347000F7FB002840F09780684606F089FE012803D10098002800F08E8000250124E8B211
:203490000CF0A2F848B1837A3BB1847290F9090004FA00F0C0B20AF07DFC6D1C032DEED3CF
:2034B00045464FF00309686885F8109070300CF0E1FC8148002301680360804950F8082CC3
:2034D00098461A4640F8088C05F134000CF0E0FC3068006B80470146AA68A869891A090BE5
:2034F000C1F1FF3282422CBF08444FF0FF30A8612E7F1EB1E968B0EBC12F1ED90BF0D8FD48
:20351000414600B12146081C14D0504640F60901018041464180427B64F303024273027B0A
:2035300061F30302027341600CF08EFA418811F4406FFBD02C774146A9616348016821F0E7
:20355000020141F400710160604941F8049C41F230028A600C6050268E600C604FF4CA62D5
:203570008A600C6041F80C4C4446046002200AF01DFE112005F0A6FF287818B968683830BB
:203590000CF092FC687F18B16C7705200AF00EFE2C744F48686109F0F7F827F0080781E064
:2035B00046467C36366846B1B06830B13069B6F92C10B46800222023A04727F4005771E080
:2035D0003446606D016804208847D0B1287CC0B1464608363068A0B106462068006B8047E9
:2035F000E968801BE860000B8842E86002D240184008E86040F6C41181422CBFB0F5FA7FD7
:20361000E96051460D310978002011F00F0F18BF0120464660B9688C40F60901814207D150
:20363000AC6928466FF4807100224FF00073A047284906F1340000220CF02AFC0220307442
:2036500009F0A2F86C69002128464FF080630A46A04727F0005725E004F00EFE454605F116
:203670007406306808B927F002071BE00CF008FC59460E6896B1B16A89080FD2B46AB16A2A
:20369000A143B1620CF0B2FEB06848B130692246B6F92C10B4680023A04701E00CF0A6FED3
:2036B00027F4804727B1584639462C300CF004FCBDE8F88F301600201410044039EE0000AA
:2036D0008C010010B81F0020000004600C410440D591000069620000B01600202DE9FC41E7
:2036F000A0F2013714468846022F40F232819B4E9C493F1F0F2F04D9143F4CD0BF1E1CD033
:2037100011E0DFE817F0CF00C9000D01FA00C100B9002601AF00A700100010009D008F00F7
:203730007F00740066002A2880F21381B8F1020F40F00F818849238807E1B8F1010F40F001
:203750000881F078012800F00481324620781179107189B9002800F0FC805078012800F0F8
:20377000B580042800F0B280062800F0AF80052800F0AC80BDE8FC812078002840F0E980A5
:203790005078032800F0AF80072800F0AC80052840F0DF80A7E0B8F1010F40F0DA8020789E
:2037B000012840F0D68006F1EC000CF065F9002840F0CF803446002004F13A0107F01AFC8F
:2037D000002840F0C68004F1C8000CF07DFBBDE8FC81B8F1020F40F0BC8020880A28C0F236
:2037F000B880B0F5486F00F3B4808E1C17E0B8F1020F40F0AE802088B0F5FA7F80F2A980E4
:203810000E460CE0B8F1020F40F0A38020880628C0F29F80B0F5486F00F39B803E36308016
:20383000BDE8FC81B8F1020F40F0938020880628C0F28F80B0F5486F00F38B803C36EEE721
:20385000B8F1010F40F085802078062880F28180454E0EE0B8F1010F7BD12078042878DA95
:203870000A3606E0B8F1010F73D12078082870DA09363070BDE8FC81B8F1010F69D1207877
:20389000042866DA0836F4E7B8F1010F61D1207804285EDCF61DECE7B8F1020F59D1208838
:2038B0000E36BCE7B8F1010F53D13079012850D032462078D178D07069B9002849D050787E
:2038D000012803D0042818BF052842D101200CF0F3F8BDE8FC81207800283AD150780228B2
:2038F00018BF052835D110780AF09CFF1C490246102002F011FFBDE8FC8106F183050021F0
:203910001F22284607F084FE21464246284606F021FD44463078B4710AF084FF002311E016
:2039300006F1640500211F22284607F071FE21464246284606F00EFD4446307874710AF072
:2039500071FF01230094094901950246102002F0E3FEBDE8FC81C0468DE2000078050020C8
:2039700099450110B8050020B2050020094501102DE9F04F8246DAF800600C465FEA020841
:20399000ADF11C0D14BF00214FF0FF3106F1480083460BF0F6FF002818BF0B2040F00D810D
:2039B00000258848F460B8F1010F057007D0657002200AF0A7FD06200AF0A4FD01E0012051
:2039D00060702078012840F2AB80801E012868D9801E012833D9801E012800F2DF800CF0FA
:2039F0004FFA06904FF0805000F5EE77D0F8DC01A378466A009321782846062908BF01204E
:203A1000019001200290A068228AE1686368B047814606980CF0EAFCB9F1000F40F0C08023
:203A3000B8F1000F02D00BF02FFE02E050460AF086FE002800F0A4803868806A2AE00CF002
:203A50001FFA06904FF0805000F5EE77D0F8DC01012306680093A168A27860682478AC46FB
:203A7000042C08BF9C466346B047814606980CF0BDFCB9F1000F40F09380B8F1000F02D01D
:203A90000BF002FE02E050460AF059FE002877D03868406880474A49C1F8B0510D60814653
:203AB0007EE00CF0EDF906904FF0805000F5EE76D0F8DC01E38A87690093E0680190208B9F
:203AD0000290A0780390207D04900121059122782846022A08BF081CE1786268A368B84764
:203AF000814606980CF082FCB9F1000F58D1B8F1000F02D00BF0C8FD02E050460AF01FFE1C
:203B100000283DD03068006A80475FEA000947D13068C569A168E28A2369E078A847BEE77A
:203B30000CF0AEF906904FF0805000F5EE76D0F8DC01E38AC7680093E0680190208B0290EA
:203B5000A0780390207D2946049001200590257805B9014608466268A368E178B847814670
:203B700006980CF043FCB9F1000F19D1B8F1000F02D00BF089FD02E050460AF0E0FD08B99E
:203B900014201AE03068406980475FEA000907D1306802692169E078904780E74FF0FF391B
:203BB000B8F1010F05D002200AF000FB06200AF0FDFA58460CF078F9484607B0BDE8F08FC5
:203BD000504502405220002010B50B7884074CBF43F0020303F0FD0304064CBF43F0800398
:203BF00003F07F0304074CBF43F0080303F0F70384064CBF43F0200303F0DF0310F0AA0F86
:203C10000B7004D0107840F00C00107010BD18B9117801F0F301117010BD2DE9F8430D4603
:203C300000272878022814461E4667D1696808784978DDF8208000EB012080B25FEA080176
:203C50001CBFB0F5285F0B205BD14FF42851401A08D0401E21D0401E2FD0401E25D0401EAB
:203C700031D04BE0DDF82490E8680CF037F980B2A0EB08024A45BCBFA0EB08001FFA80F90D
:203C900009EB0800162806DAA6F800904A46E86800EB08010DE00D2732E0E86800880221CA
:203CB00031802070000A60702AE0062030800622E96820460BF018FD22E001203080E868E7
:203CD000017821701CE0E868B0B108213180018821700188090A61704188A1704188090A06
:203CF000E170818821718188090A6171C188A171C088000AE07103E0378001E03780012782
:203D10003846BDE8F2832DE9FC470F4600243978022970D1804678680A9E0178DFF8E0A0EE
:203D30009146427801EB022189B24FF42850091A1D4606D0491E29D0491E4ED0491E39D02C
:203D500059E0F8680CF0CAF880B2B04204D3A819162803DB0D244FE007244DE0FB682A4699
:203D7000494698190BF0C0FCAD19F868ADB2C5F11602002140190CF0AFF8DAF800000028D2
:203D90001CBF0268002A37D0002123E08EBB022DE0D199F8000099F80110FA6800EB0120AF
:203DB0001080DAF8000000281CBF0268002A23D001210FE0EEB9062DCCD1F8680622494668
:203DD0000BF092FCDAF8000000281CBF0268002A12D00321404690470EE056B9012DB9D1C9
:203DF00099F80000002813BF0128F9680870802402E00B2400E001242046BDE8F6870000E4
:203E1000382000207CB5894D144602460026A2F58062182A1AD8DFE812F0FE00F800F100EE
:203E3000E900E200DC00D500D0001900C500BE00B700AE00A3001900190080006F006800F9
:203E500054004C00420039002C0024002A2880F28580022940F0828021880AF00FFA0646C9
:203E7000E1E0012940F0DE80002C00F0DB801135A6E0102940F0D680002C00F0D3802846DA
:203E90005030102221460BF02FFCCCE0012940F0C980002C00F0C68029468D1D90E026294A
:203EB00040F0C080002C00F0BD8005F160002622E8E7012940F0B680002C00F0B3806D1D53
:203ED0007EE0602900D13CB9012940F0AB80002C00F0A8800D3573E005F186002146602262
:203EF0000BF002FC012068739DE0012940F09A8020780CF077FA96E0012940F0938020784C
:203F1000022800F38F800C3528702078022814BF301C01200CF062FA85E0072940F082806B
:203F3000611C684606220BF0DBFA20786946324605F09CFE04460A2C10DA0CF04BFA38B964
:203F5000204603F0FBFC0AF0EBFE08F065FE6AE02A46012002F12C05285564E0022662E099
:203F700001295FD1A87B21780028A9735BD12078012858D1E9E7012954D12478072C51DBA7
:203F9000102C4FDC0B3537E001294BD124780A2C48DA093530E0012944D12478022C41DAA7
:203FB000083529E000293DD10CF014FA10B90BF046FCC8E701240F351EE0012932D10A35E2
:203FD000247819E001292DD12478022C2ADAED1D12E0102926D12B4603F1400051E7012913
:203FF00020D12478022C1DDA2D1D05E0012919D12478042C16DCED1C2C7014E0012911D159
:204010002478022C0EDAAD1CF6E702290AD120881435288007E0012904D12478022CD8BF52
:204030006D1CE9DD182630467CBDC0468C0A00202DE9FE4F05467B48002400680094C0091E
:2040500005D37948007810B920200AF031F9012D40F0E280DFF80092D9F8DC00012840F0E3
:20407000D8800220C9F8DC000AF0E2FF01200AF01FF95FEA000805D00120C9F8DC000AF02D
:20409000E7FFCBE00BF014FFA34602906748684DC0F800B0A86A016801208847012804D1C1
:2040B000584607F097FF012000906248624FC0F800B0386811200BF0C5FD00B101241020BD
:2040D0000BF0C0FD08B144F002040F200BF0BAFD08B144F004040B200BF0B4FD20B1286817
:2040F000564E016B308888470A200BF0ABFD20B12868534E016B3088884752480126066030
:204110002868816944F0200088474F4806600BF093FD00F001010191400814D2286A81683D
:204130004A4888478246BAF1040FF7D0BAF1010F04D1286A42684548032190474449086870
:2041500020F003000860584600F09AF92B683868986B8047019801280CD0BAF1010F04D188
:20417000286A42683948314690473949086840F0030008602F48066028684169204688474B
:204190000B200BF05FFD20B128682C4BC16A188888470A200BF056FD20B12868284BC16AA4
:2041B00018888847274806600322C9F8DC20264BC3F800B02868416B204688470128F9D189
:2041D000386804200AF074F80446184806603868144800688009FBD30098012802D13046D0
:2041F00007F0F8FE0BF01CFD08200AF061F807460298C9F8DC600CF0E9F81648008807F095
:2042100089FC0AF025FF57EA040018BF4FF0FF3804E06FF0040801E06FF001084046BDE896
:20423000FE8FC04614100940200F00200C400940B8010010000222432C20094002100100B2
:20425000FE0F010028200860800104430040034024220840B0130100380E0020FEB574481E
:20427000744A0078744C754B75490D283CD8DFE800F0DD07070707D5D558D59494B2B2B9A5
:20429000146041F204456F494C88AC421FBF4E8BAE424E8EAE4203D11D806B48106074E049
:2042B000022C6A4D1C804FF4A05635D94FF48067E41B1AD0241F012C1DD94FF47F77E41B75
:2042D0001BD04FF44067E41B0FD0A41E012C0CD9241F0AD0641E012C0DD940F2F937E41B34
:2042F000012C19D9241F08D098E0022814BF1E80574D156049E0574DFBE7574803681C7AF9
:20431000012C05D141F20240488048834886F0E74E804E834E86ECE700200BF0B7F883202A
:2043300080E04E488178FF2954D0182041434C48146040F204450068841C645A1C80641B12
:20435000012C484B72D94FF47F75641B0FD04FF44065641B032C84BF641F012C0BD9A41E7E
:20437000012C63D940F2FD35641B08D103E0801C41F201444452136004F026FB05E00020EE
:204390000BF084F885200CF01DF803B0BDE8F04035480078012105F035B840F20442488817
:2043B000188090421CBF41F2084290423ED041F60402904211D12D4C2D4A25682D48006800
:2043D0000023CDE9002355F8086F2B4B0222B0472A490880F7BD4888188000200BF056F8FC
:2043F00085201FE04888188002280DD940F20442801A1BD040F6FC72801A05D0083815D05C
:204410004FF47F72801AE8D1887B801CC2B2B52AA8BF6620887300204880F7BD00200BF074
:2044300035F88420BDE8FE400BF0CCBFF7BD00BF6F4F0020204F002055FE0000504F002040
:20445000CC4C0020204A002059550110615A0110B1540110755B0110104F0020684E0020B3
:20447000804E0020313901106E4F0020F04E002002000080EC4E002025E20000424F0020F4
:204490002DE9F84FDFF804B20746ABF13500DFF8F0810068800880F0E2807548006800686D
:2044B00080477E490831D1F8009000254FEA29715FEA995201F101010AD2C0F13E0210F1DE
:2044D0000A0F4FEAE202D8BF08229142B8BF111C684BD3F87C21C2F30462162AA8BF203A27
:2044F0001B68C3F30443162BA8BF203B9A465218162A05DA12F10A0FB8BF6FF0090200E0E3
:2045100015225D4B5D4E02F01F0141F4F8511980316811F0030F18BF0125C90828BF45F042
:2045300002050FB145F00405434693F90710411A052904DA9979A94208BF99886FD0DFF8D8
:2045500044E10F28A0F10F0829DB08EB0011A1F1F0084FEA28210091072984BF0721009176
:20457000062988BF06215EF821600424774604EB81043C594FEA950CA41BEE0804F0FF0146
:2045900024BFC4F3072631446F08AE0824BFC4F3074631446E0828BF01EB146104E0002183
:2045B0004FEA950C6F080091009C5EF824E05FEA5C060EF0FF0424BFCEF3072634447E0898
:2045D00024BFCEF3074634446E0828BF04EB1E64009E89B2A8EB06267143803104EB112473
:2045F000AAEB02010029D8BF0121342209F0FF074A4391B24FF6FF727943B1FBF4F18A423D
:2046100038BF111C802889B2998005DA10F1800FB8BF6FF07F0000E07F20D8719D711A486E
:2046300000681F2918604FF0000008D340F2FF128A4206D24908401C8A42FBD301E01F21D9
:204650009980134F0F39090940EAC10047EA0001CBF8FB1F0026CBF8FF6FBDE8F88F0D49A2
:204670000D4F434608200F609B1D1870BDE8F88FEC0100103C1100506E6208402422084002
:20469000242000209C130050082009403500094000E7A48030100940FDFDA400AC3F00504B
:2046B0002DE9F04F044674488E46016894461F46BEF1000FADF1440D4DD0BCF1000F4AD073
:2046D0009EF8002001209040014244D0BCF80000B0F5C15F32D1DCF81400DCF81860674B6A
:2046F000DCF81C50DFF898A10E904FF003080DF134090F9618681095C0F3036B59F8046F88
:20471000CEB10021351F05200B4655F8042FB2F1FF3F10D0924506D0401E01F1040103F1E8
:204730000103F2D107E0052B05DA705820F4702040EA0B407050B8F10108DFD1C4F804E009
:20475000C4F808C00BF09CFB4E4D8046287820B140460BF04BFE00208AE002F09FFE4A49EB
:20477000086840F00200086007A80BF07DF9002605F1AC0007AA4549099609F0A5F9444935
:2047900005F1E00007AA09F09FF907A80BF02CF9FF20192107AB3F4A089005F1340009F0D3
:2047B000DDF83D4A05F150001A2107AB09F0D6F83A49324605F18800134608F003FB384A49
:2047D00005F12000042133460AF00AFA0E2004F091FF05F174000BF053F805F16C000BF058
:2047F0004FF8072385F878312E742E77AE616E772C48AE60052268612B49EA602B780E7086
:20481000581C287040460BF0F1FDB1461FB96846FCF7E4FB6F46386801212060388A617430
:204830006082786810B940F6C4100E46E06026741E48A0616061F86800B1A061B86800B19A
:2048500060617822494604F1200006F0E1FE04F1380049460AF06AF80BA80BF077FA1449E0
:204870000D9404F170004A460BAB08F0ABFA204611B0BDE8F08FC046D421084054130050FA
:204890000200F8443016002000200940F1F50000F98D000039EE0000ADB30000A1F0000077
:2048B000A1D00000D59100004C2000207B9C000037FE00002DE9FE4FDFF8F48198F80110E9
:2048D00011B900200AF0E2FD0BF0B0FD07464FF0000907F6C4170026764D774C11E03046DD
:2048F0000AF0ECFF417951B12968827901F8092009F101015FFA81F939460BF05FFD761C22
:20491000F6B220788642EADB98F80100814505D000200AF0BBFD82200BF054FD98F801003D
:20493000012840F0A680002601E0761CF6B22078864280F2988030460AF0C0FF0746787950
:204950000028F2D02868B979027891421CBF00200AF09CFDB87984E02868C05D0AF0AEFFD7
:2049700000684268DAF808109068814204BF34467F1C00F08C808EE0296808780123F6B251
:204990004FF4C07210E0D8F8047007F5AD7CCF5C02FB07F43CF804E002FB00F43CF8044095
:2049B000A64538BF38465B1CB342ECDB06464FF6FF700BF0FFFC8246F0B20AF07FFF4FEA43
:2049D0005A010068446840F6C410414301F5A06000270091019015E0F0B20AF06FFF016823
:2049F0000A78802A03D1DBF81030009A5A610978402906D131498079096801EB40110198C4
:204A1000C8617F1C4F4550DA2868C05D0246F1B29142F6D04FF4C071D8F804304A4399181D
:204A300003F5AD73C9899A5A4B08934202D2891A8945E6DA0AF042FF0068D0F804B0A268B2
:204A5000DBF808104FEA5A0040F6C413A1F6C41103FB00200BF0E6FC0028BDD02868C05DF2
:204A7000C0B2BDE8FE8F00200AF010FD82200BF0A9FC98F8011028680BF098FC2868007851
:204A90000AF01CFF00240168D1F804A00127661C4F45FFF661AFE4B2002C1CBFF0B200284D
:204AB0007FF46AAF2868067881E73046D8E700BF684E0020004F00207B4F0020844E0020CF
:204AD0002DE9FE4F0E468246307AC10693461C464FF000090CD558460BF064FC030000F086
:204AF000E9800A223146504698475FEA00094DD13078DDF838800D9D0C9F02281AD170683E
:204B10000178407801EB002189B24FF42052891A012910D9891E3AD0491E14D0FD397BD024
:204B3000491E00F08280491E6ED0491E74D0491E00F09680ACE0002D2AD1F0680178398011
:204B50000278416888E0002D22D101203880F0680178217000217089401C80B20BF01EFCA2
:204B7000398860B10278921C51183980418961704189090AA17002784168E01C6DE0091DEE
:204B9000398004220021601C0BF0A6F994E0002D67D1F0680588042139802570290A6170BA
:204BB00028460DF102010BF0F9FB5FEA000821D0D8F80C50BDF802204FF6FF766B46314660
:204BD0000BF0E8FB50B998F80030D8F804203C4802210BF0DBFB08B9ADF800602878022822
:204BF0000AD169680222201D0AF07EFD3888801C388001E0ADF80050BDF80000A070BDF8BF
:204C10000000000AE07057E0002D2AD1F068016850460AF0D9FE02E01DBBF06800880221E6
:204C300039802070000A607046E0F0680BF056F980B2A842B8BF4FF007093DDB854208BFF1
:204C5000002205D008EB05028242B4BF4246421B3A8092B2F068411920460AF045FD2BE0DA
:204C700015B14FF00B0927E0F0680721398001782170417861704188A1704188090AE17030
:204C900001792171C1886171C088000AA07113E058460BF077FB5FEA00090BD00F98029016
:204CB000CDF8048000953B46224631465046C847814601E04FF00E094846BDE8FE8F00BF84
:204CD00070110100F8B57E4F04463868C16E0025002940F0F18010200AF0FEFE39680028D1
:204CF000C86600F0E7808E6E102221460AF0FCFC39680878002840F08E80CA6ED6F8980073
:204D100012F80CCF00F001030CF0010C634518BF0023400843EA4000C6F89800C0F34003FE
:204D3000D2F800C0CCF3400C634506BF430803F00103002320F0020040EA4300C6F8980027
:204D5000C0F38003D2F800C0CCF3800C634506BF830803F00103002320F0040040EA830065
:204D7000C6F89800C0F3C003D2F800C0CCF3C00C634506BFC30803F00103002320F00800D8
:204D900040EAC300C6F89800C0F30023D2F800C0CCF3002C634506BF030A03F001030023E1
:204DB00020F4807040EA0320C6F89800C0F34023D2F800C0CCF3402C634506BF430A03F0C4
:204DD0000103002320F4007040EA4320C6F89800C0F38023D2F800C0CCF3802C634506BF7D
:204DF000830A03F00103002320F4806040EA8320C6F89800C0F3C0231268C2F3C022934269
:204E100006BFC20A02F00102002220F4006040EAC220C6F898008A6E92F89500030718D5F6
:204E3000C86E4368C3F3C00098B1C87840F00800C870D6F8981023480140C6F898103868EA
:204E5000C06EC16821F48071C16049084900C16003E092F8330001282AD0607800281CBF6B
:204E70007178002908D13968CA78130708D5002804BF7078002803D03A68052111711CE049
:204E90006068C0F3800040B996F8950010F0040002D10120087110E00AD00878002819BF30
:204EB00030782178317820780BF068FA054604E0182502E0132500E011252846F2BD00BF8B
:204ED000304F0020FEFEFFFF70B5754C01466068491EADF1280D70D0491E6AD0891E55D04D
:204EF000491E4ED0491E04D0491E46D0491E42D03EE00AF0B9FEA068052107F0A1FCA06853
:204F1000022107F09DFCA068012107F099FC6549102001F001FC6449C5B201AB10206A1EC4
:204F300001F0FAFB78B9009560680221002240A309F003FE64680DF1060008F00BF80321DC
:204F5000034620461BE006AD40F21530294602F063FC60680221002239A309F0EEFD646814
:204F7000284607F0F7FF03210346002220465AE0022100221AE035A300E036A3022104465A
:204F9000F3E7142009F07CFE38A307E004F178000AF09AFF142009F073FE37A3606802215B
:204FB000002209F0CAFD6068032105220AF026FE3BE0042134A30446C3E74FF4417008A91E
:204FD00002F02AFC9DF821608DF8056000258DF808509DF822308DF807509DF824108DF896
:204FF00006309DF820008DF80A109DF825208DF804009DF823608DF80B2001AB2B498DF847
:2050100009601A680A6058684860666808A807F0A1FF034603212A46304609F08EFD60680F
:2050300004211CA32A4609F088FD0AB070BDC0464E756D20436F6E6E733A20256400C04667
:20505000436F6E6E656374656400C0464572726F7200C046436F6E6E65637465642041643F
:20507000766572746973696E6700C04654696D6564204F757400C046446973636F6E6E65BB
:205090006374656400C046C04164766572746973696E6700496E697469616C697A656400A4
:2050B00008020020F17F0110097F0110C70800202DE9F0410446764DA178A869ADF1180D6C
:2050D000891F00F0DE80C91E00F0C980491E5FD0491E48D0C91E3CD0481E40F0D580287A15
:2050F000697AB8B96878002831D0A0880BF042F9071C00F0C980A07A40080FD3787968B13B
:20511000E168890A0AD2B91D01AA04F0AFFD0A2804D10321A0880BF029F9B5E0287B0228D4
:2051300002D1A07A0009F4D3A088797904F1080201F02AFAA869002800F0A6804368002B4F
:2051500000F0A28000210A46A08898479CE00521E0E7002800F098804368002B00F0948042
:2051700062780221F0E70AF09FFC002800F08C80A86950B1076847B1206900906189227B79
:20519000637BE01C3C46A0477EE060890121C2E767784FF00008002F52D1A17949084FD3A5
:2051B000EF69002F4CD101A841460E220AF094FEA0880BF0DFF8071C66D0606940B9787949
:2051D000B91D06228DF80A0001A80AF08DFA19E06669307C062206F111018DF80A0001A82B
:2051F0000AF082FA07F10C00B91D06220AF07CFAB81D062206F111010AF076FA307C40F06B
:2052100002007871A1799DF81120C1F3800010438DF81100080905D39DF8110040F00800CF
:205230008DF8110001A8214600F024F928B92878022104F0E7F8404627E0A8694FF015083A
:2052500010B3436803B3A088627801219847B8F1000F19D0A86943680321424674E7E0785B
:20527000211D002204F002FD0A280DDA410001EB800004F10C0225300421C0B202F004FF21
:2052900002E0A08807F0EEFD012006B0BDE8F0818C0A00202DE9F04F754F1E46ADF1340D13
:2052B00001914FEA960902923D680090710809F1020221F0010105EB8200091D039090184E
:2052D00005EB80000490501805EB80038018059305EB8000079026F0030000F1080802EBA1
:2052F000080005EB800340180893801805EB80000990C6F39C008000083002EB40004118FC
:2053100005EB800305EB810B0A938918831805EB8104404405EB8303C6F3990105EB800083
:205330008900069038680B930A010021803206F06FF94849DFF820A109682846AAF1880297
:2053500090470746B94518BF6FF001007ED128465546394605F1680290470198314609F0CD
:2053700077FF002818BF012070D10298314609F06FFF002818BF022068D103980199A84750
:2053900004980299A847009881680598A847334B0399059A20469946C847012802D1BD0004
:2053B00066590EB1032051E020460021424606F02FF90499059A2046C847012801D1665973
:2053D0000EB1042042E0274B254D079803991E462A46B047089804992A46B04707990998E9
:2053F0000A46B0470A980999079AB0471E4D0B9807992A46B04720460021282206F008F99D
:205410001A4B0A990B9A20469946C847203520462A460146C847089958460A46B0470698D6
:205430000021424606F0F4F8FDB25846002D0CBF0122FAB20021635C455CAB4218BF052053
:2054500004D1491C521EC9B2F5D100200DB0BDE8F08FC0468C4F0020B9DB0010C9DE0010F4
:20547000E8130020F9E00010F4100100C9E60010884F00202DE9F04F714CDFF8C0A1E569C5
:2054900088468146ADF1140D002D4AD1B9F1000F00F09280B8F1000F00F08E8009F0F6FA06
:2054B00006460A2E23DAD8F814702674002F39D0700010216A4600EB86002330C0B209F0B5
:2054D00012FF90B950460778FF21102268460AF04AF850B93FB999F80600494600F00100F9
:2054F0000AF040FF01E00120A074E56919E004F1E60B0A2700265846FF2106220AF033F8BE
:2055100068B97F1E0BF10E0B06F10106F3D1607C002804BF0A2020744ED094F83660267487
:2055300000E0267C0A2E47DA002D35D170000E214A4600EB86002030C0B202F0A5FD207CBB
:2055500007F018FE6846FF2110220AF0C5FC207C10216A467030C0B202F096FD217C0E2292
:205570000801A0EB410000194946E6300AF0BCF8D8F814206AB15046007840B9107C02F135
:205590001101002300F001000AF0E8FE01E00120A074C4F81C804CE0AA68002A3ED12A697D
:2055B000002A2FD16A690ABBEA683AB9A07B08B109F008F809F088FE01203BE070001021AB
:2055D00000EB86002430C0B202F05EFDE769217CFA68480000EB8100103225300421C0B206
:2055F00002F052FDE1690020C86022E07000102100EB86002330C0B202F046FDE169002050
:20561000486116E070001C2100EB86002230C0B202F03AFDE169002008610AE070001C2166
:2056300000EB86002130C0B202F02EFDE16900208860002005B0BDE8F08FC0465A4F0020EF
:205650008C0A00202DE9F043664C62680546880FADF1140DC0F0C2805068406808B180474C
:2056700062685168886808B9C86868B10AF012F95168886810B1804760684168C86800B115
:205690008047594809F098FA58480AF0DDF9584940F60A0CA1F800C0002048800A7B60F391
:2056B00003020A7348604A7B4FF0010969F303024A73AB686E7C58801A88A2F60202CAB1F6
:2056D00041F21E07D21B15D041F6E677D21B012A20D85A7E012E60F382025A7606D01A8BC3
:2056F00022F47C7242F434721A8313E01A8B60F30912F9E75A7C012E60F382025A7405D0B8
:205710001A8A22F47C7242F4347202E01A8A60F309121A82D5F8088068746246464600E020
:205730003E46776817B13B889A42F9D17160727B60F303027273E76E47B1FA681288ACF1E4
:20575000070393421AD05B1C934217D02F8CB7B1686205F12002508095F82C3060F3030326
:2057700085F82C3095F82D3069F3030385F82D304A604A7B60F303024A7300E0A0601D4851
:2057900001688768C568009110226946406B019720F0784040F0805003901748029504F07A
:2057B000D9FD0AF077F815486061607F68B91448006801684846884701280CD0707B69F3A6
:2057D000030070730F4F676105E007F0C7FF0028FBD00AF065FB40460AF036F905B0BDE8B5
:2057F000F083C046301600200100070601010E04B81F00204C130050180000212D34000058
:20581000E0010010C9CA000066480178002900D170472DE9F843491E032984B004D9891F7F
:20583000012940F2BC80B4E05F4CDFF880912168DFF87C8108685F4E00F10805062205F103
:20585000080102A809F050FF0622A91C684609F04BFF2878C1091D2700F00F02032AC0F3D0
:20587000801537D16079C0F3800081421ED12169062202A809F07CFC00280AD069462846D1
:205890000AF0F0FD002804D0314668460AF0E6FDFF2879D04743D8F80000807AF519002819
:2058B00018BF02280AD0012818BF03286CD1F25D691C48460AF04EFD102865D06B46EA1DC9
:2058D000294648460AF042FD06226946E81D09F00BFF59E000F00F00052860D16079C0F381
:2058F0008000814250D12169062202A809F040FC002849D0694628460AF0B4FD002843D05F
:20591000314668460AF0AAFDFF283DD04743D8F80000807AF519002818BF01280AD00228EF
:2059300018BF032830D1F25D691C48460AF012FD102829D040F2024008F0E4F86B46EA1DB8
:20595000294648460AF002FD06226946E81D09F0CBFED8F80010F05D88760622D8F8000080
:20597000691C143009F0C0FE1348144A41F204414180418341861248018012491248086022
:205990000121107803F03EFD21680A680020107105E0002009F07AFD86200AF013FD05B0A9
:2059B000BDE8F0836F4F0020F44B0020CC470020104F0020AC450020204A00206E4F002058
:2059D000504F0020204F0020595501107CB56D4D044668680E4628B94FF00040002106F0DA
:2059F0001BFE686000213CA30A4609F0A6F820463DA3801E08D0801E61D0401E4CD0401E6C
:205A100037D0401E22D00EE06868012E05D000210A4609F092F837A357E000210A4609F0EE
:205A30008CF839A351E0686800210A4609F085F86868022100223AA309F07FF801208DF806
:205A500003009DF803000028FBD17CBD686800210A4609F072F868680221002236A309F0E3
:205A70006CF801208DF802009DF802000028FBD17CBD686800210A4609F05FF868680221C2
:205A9000002232A309F059F801208DF801009DF801000028FBD17CBD686800210A4609F011
:205AB0004CF86868022100222DA309F046F801208DF800009DF800000028FBD17CBD68683E
:205AD00000210A4609F039F829A368680221002209F033F87CBDC0463E3E3E535441434BA7
:205AF00020415353455254002A2A2A4552524F522A2A2A003E3E20494E5445524E414C2005
:205B10004552524F522100C03E3E20494E5445524E414C204657204552524F522100C04683
:205B30003E3E2044454641554C54205350494E4C4F434B2100C046C03E3E2057524F4E4721
:205B5000204150492043414C4C2100C03E3E204943414C4C2054494D454F55542100C046AF
:205B70003E3E204943414C4C2041424F525421003E3E204F5554204F46204D454D4F525919
:205B90002100C046080200202DE9FE4F664D654C664F2868626A066904F1200339460120A5
:205BB000B04710B1286880688047DFF89481DFF8809109F0A1F85FEA000B03D004F056FF08
:205BD0004FF0FF3B002637E00098216910F8062CA0F10C07032A02D171B388472CE0A06AF6
:205BF0009DF805C00A213246401E10F8013F9C4506D0491E02F10102F7D14FF0FF0A01E0ED
:205C10005FFA82FA2868BAF1FF0F00F1080011D0387908F083F9B979012904D0022904BF39
:205C30000099887001E0009908700099504609F0BFFA01E0006880472868C3690DF1050120
:205C50006A4601A898470028BED0D9F800007700C35B23B9761CF6B20A2EF8DB22E00A2E85
:205C700020DAD8F808008047D9F80010002231F807A0CA53D8F80C1088472E4850F82620CC
:205C900026705146304690470646FF202070D8F808008047D9F800107A5A16437E52D8F832
:205CB0000C10884709F028F80746BB451AD0D8F8080007B9204FE169B94238BF0F1C804764
:205CD00082462868016A206A8847626A286817491A4B521C6262C6683846B047D8F80C10B6
:205CF00050468847A7682968606914318FB9D9F800000A270026835B33B109696069884745
:205D10002968D9F8000014317F1E06F10206F2D103E0096988472968143109684FF0FF3094
:205D3000884746E7B41300201C16002065DF000040200020E81101008EC2F528D4130020EC
:205D5000181000202DE9F04FADF1240D079001F0A5FB6048007809F043F85F4D0024012852
:205D700006D90C3804D0401E0ED0401E09D006E009F006FC022804BF01210C1C06D06968EA
:205D900005E005211F2401E0032107246960534A1068C0F38150012806D152F80C0C012789
:205DB000020E07FA02F0044309F046FE524AFF234018401E471C28607F1E02F8013BFBD14E
:205DD000079A1268002702F0FF03FE2B20D0DDF81CC096463B4601260EF0FF02FF2A10D027
:205DF000904205D3914203D806FA02F2144201D002206CE017430EF0FF02DFF8FCE00EF8A0
:205E100002305CF804EF5B1C0EF0FF02FE2AE5D1092003F06FFC07980121A86005F1280037
:205E300008F084FD05F19806A8464FF0010A4FF0040B0025A9460AFA05F0044216D107423C
:205E500004BF05F0FF0141F4C04104D02A480799405D51F82010224802F048FDE8B24FF0CE
:205E7000FF3109F0A3FAC6F8009001E0C6F800B0D8F800006D1C361D8542DCD904A809F0E2
:205E9000B3FD184C184A2078102104AB059008F10C0007F063FD684609F0E6FDCDF80C9028
:205EB0006A4660681149029008F1640007F00CFE0F4951F80D0C20F4F85040F4005041F83D
:205ED0000D0C0C4FC1F8FFAF4846C7F800A009B0BDE8F08F53200020240D0020B43F0050E6
:205EF000007FC767C8140100D9F300002DD700000D30094008000940680D00202DE9FC4F6B
:205F100083F0004301E02DE9FC4F1F03FF0847EAD2574FEA42284FEA43095FEA595906D1FC
:205F300047EA080A1CBF00210020BDE8FC8F57F000575FF4E06E1EF1FF0EF14505D14FF01C
:205F50000000190D0905BDE8FC8F002B05D55FF0000AD8F100086AEB07070C03E40844EA12
:205F7000D0544FEA40254FEA4106760D08D144EA050A19BF00210020191C101CBDE8FC8F8C
:205F900044F00054764504D10020090D0905BDE8FC8F002904D55FF0000A6D426AEB0404FE
:205FB000B6EB090E08D5A2463C465746AA464546D046CEF1000E4E46BEF1360F5CBF4FF0F5
:205FD000000B23E0BEF1000F04BF4FF0000B1AE0CEF1390ABAF120092EBF08FA09FB07FA14
:205FF0000AFB4BEA080BDEF1200A07FA0AFA38BFBA4647FA0EF72DBF28FA0EF8AEF1200E28
:206010004AFA0EF8D04415EB08057C4154EA050A02BF00210020BDE8FC8F002C58BF4FF047
:20603000000A06D55FF0010A5FF0000E6D426EEB0404A6F101066D006441FAD515F4806E2E
:2060500011D005F480794BEA090B15F5806554F1000428BF761C0BD205F400795BEA090BBB
:2060700008BF25F4006525F4E0656D0044EB0404B61CDEBF00210020BDE8FC8F5FF4E06E48
:206090001EF1FF0E76450AD34FF0000013F00043FF21C900C91D09051943BDE8FC8F270522
:2060B00047EA1530210B41EA065141EACA71BDE8FC8F70472DE9F04F0746ADF1140D039368
:2060D000002F02920E9801910F9C049000F0B680081C00F0B380101C00F0B080181C00F099
:2060F000AD800498002800F0A980002C00F0AB80206A002800F0A280564D666A281D00685B
:20611000002E00F09B80A16A0AF01CF940B2002808BF6FF0020700F08D8084F82C00207896
:20613000618800EB80000918143188B2216A88474749086030B9284640680AF0FFF84FF0DA
:20615000FF3777E08B46628823786088DBF8001025789E1800EB010A701800F1040805EBC3
:20617000450002EB4306851876186D18C01805F10C098018401800F11005204607F046F870
:206190002078C01C8010CAF800002078C01C8010C8F8000020780836C01C801030602078FB
:2061B000C01C8010C9F800002078C01C80102860227839460AF1040004F0CCF82278019912
:2061D00008F1040004F0C6F822780299301D04F0C1F82378204641463246FFF75BF8071C65
:2061F00012D100955046414632464B460AF0A2F847B22278039809F1040104F0ABF82278FF
:206210000498291D04F0A6F821786288DBF8000001EB81015218002105F0FAF9616ADBF825
:20623000000088470B4840680AF088F8F8B2992808BF002784F82C70384606E01CB16FF009
:20625000010084F82C006FF0010005B0BDE8F08F884F0020E01300202DE9F84F644C654F81
:20627000103CE06F04F16C0500283BD02869806909F092F9296928312E690A6802430A6039
:2062900006F1200191E80003002343EA090340EA080281E80C00810806D218B328694FF455
:2062B0008041C4F8800019E0286982693E46A6F1100000F10803196822F002029143196051
:2062D0002969CA69066826EA02010160296905F1080008F05BFE00200221286104F1AC00B9
:2062F00009F0EAFD00264FF00108B9464FF0020B4FF0110AF0B209F067F9071C37D0B87A44
:20631000012834D197F90900A9F11401113008FA00F0C2430A604A681043486097F909000F
:2063300008FA00F0C0B209F06BF807F11000002108F0E6FA0146812909D1B86918B10021B6
:2063500008F0DEFA0146812908BF87F80AB081290DD097F9090094F879110AFA00F00843F7
:2063700084F87901002104F1E00009F0A5FD761C032EBFD3E16F28680029074636D180B3A1
:20639000684606F0D3F930B1009820B1082007F001FDBDE8F88F082009F032F8284608F039
:2063B000E4FDE06707F1180090E806004846CA43A0F10C04226023681942FBD108380268FD
:2063D00011430160F969C94340F80C1CF96950F8082C114340F8081CF86808F0EDFBBDE8B7
:2063F000F88F04F1AC00594609F066FDBDE8F88F401600201C1004402DE9F843614C5A4DB3
:206410005A4EDFF870815E4F94F8E4100846401E0B2864D8DFE800F07B2C4306234306237E
:2064300043067664042907D001220A2945F8212C14BF0220032004E0202045F8210C01207E
:20645000024684F8E200002045F8390C0827C5F8FF7FC5F8F37F45F8392CBDE8F88305295B
:2064700014BF09200620002784F8E400376075E094F8E170383D0120002FC5F81B0004BF3A
:206490000620002102D00021F160032084F8E400032045F8010C3160306880085ED294F804
:2064B000E4103348012703290ED00068456800216022052300914046A84794F8E4000628A7
:2064D00014BF0A200720CFE700684568002160220523022000904046A8470420C4E7FEE717
:2064F0002548264F0026012506600E203D6002F0E9FF022007F05AFE84F8E45084F8E36073
:20651000BDE8F883002038600C25786024E04FF08059D9F8A0010168202088472C3D0F20EC
:2065300045F8010C41F61D56C5F80360D9F8A401466800214FF4C072072302254046009511
:20655000B047D9F8A401C66800214FF4C07207234046B0470120386084F8E45004F178007D
:2065700009F086FCBDE8F88339400C4038600C40A401001000A00C402C500C4004800C408E
:2065900034600C40380E00202DE9F04F88468246ADF1AC0D299209F0EDFE5C4CE67894F832
:2065B0000BB0A57A94F80C90071C00F0AB8068460021A42209F090FC2801279A55498DF864
:2065D000046005F0030300F4807605F00405ADF800A0B9F1020F01EA020143EA01024C4BAF
:2065F0008DF8A0B046EA020100F4C06603EA010246EA020045EA00054FF00000279508BF51
:2066100001208DF8370009F091FE412809DB207B00280CBF002008209DF8991008438DF8D4
:206630009900607B002804BF00208DF8380017D001208DF8380004F1860120220DF1390054
:2066500009F052F80DF1590004F1A601202209F04BF80DF1790004F1C601202209F044F8CC
:20667000A07940B18DF8260004F1500110220DF1270009F039F866793EB104F16000B91D95
:206690000622054608F074FD68B92079002804BF00208DF8050015D08DF8050004F140011A
:2066B0000DF106000BE08DF805600DF1060005F11601102209F018F80DF11600A91D102299
:2066D00009F012F8E07930B1B8F1000F03D0279941F002012791002100B10121A7789DF88E
:2066F0009900002F41EA00018DF899100CBF002004209DF89910084329998DF89900684642
:2067100009F010FE2BB0BDE8F08FC0468C0A0020FBF9FFFFFCFEFFFF0FB42DE9F04106AFFE
:206730008046ADF1280D09F0FFFA3E1D26F00306361D30F0010001D109F029F8CDF81A60A5
:206750001420ADF816000025CDF80E50FF248DF818407B68CDF81E3009F0E0FD064609F0E1
:20677000E3FA30F0010015D008F0D6FE4D492A468446062031F80C7F4FB14B681B689E429A
:2067900004D0401E02F10102F4D100E0D4B2604609F008F8404607F0D5FC0146FF2905D065
