:200000000040002035D7000001C9011001C9011001C9011001C9011001C9011001C9011052
:1C00200001C9011001C9011001C9011001C9011001C9011001C901103FC9011089
:20003C002DE9F04FADF12C0D00F0F6FBB348B14D4FF00009C84690380790A868AE4A494652
:20005C004FF0FF3300F0D8FB0028F6D0484605900DF11A0105AA06A80EF02CFA002840F04D
:20007C008980BDF81800012710287ED128789DF81A10884279D1059C20884FF6FF718142AB
:20009C0073D02678913E5DD01F3E6ED1607816282CD020797E281DD07F280FD000904846E9
:2000BC004E4601904A4602964FF49C610392B0A304963A46AAA00AF083F834E02089009089
:2000DC004E4601964A46029240F2DB410396B2A30492EEE7207A00904E46019640F2D64170
:2000FC00029603220396B3A30496E3E720794E46009040F2BE41019602220296BCA303969B
:20011C0097A0CDF810900AF05BF86E6A8EB94FF6FD70CA49CA4A00904B46102006F0D0FDCE
:20013C006E6AC3B22BB1217904F1080000F068FB1BE046F0010638466E6208F0C9FF4F46B5
:20015C002C6112E060780E280FD1CDF8009048464E464C46019040F2A1413A460296C7A3E6
:20017C0003947FA004960AF02BF8059810B10FB10FF01FFEE86800F047FB00287FF45DAF93
:20019C00E86800F045FB014601F10904097A0890002900F08581491E00F0B280491E00F063
:2001BC009580491E00F0A282491E64D0491E43D0491E03D00A3900F094829AE2686A400865
:2001DC00C0F097822F69002F00F09382A87807F10806401CA870C14900967A883B7910204E
:2001FC0006F06EFD5FFA80FABAF1160F14D06F6ABAF1040F10D037F001076F6208D14FF666
:20021C00FD708E498E4A00900123102006F058FD504608F05DFF6CE2286900790090A87885
:20023C004F464E464C46019002220297B9A3039640F22A51049419E1C77A00F10904002FF7
:20025C000CBFC0A0C2A000904E464F4640F223314846019001220297BFA3039640A0049765
:20027C0009F0AEFF484600909B4922884B46102006F026FD3DE200F10904407A0D2814BF57
:20029C00C2A0C5A06778002F0CBFC6A1CAA14E460122CEA300904F4601914846029040F29F
:2002BC00A33103972EA0049609F08AFF27780D3F09D07F1E40F01D8201200146641C22464A
:2002DC0004F0CCFC15E201214846F7E7278841F2101022463F1A06D0103F40F00A82207984
:2002FC006188641DEBE710795188521D07F0C0FBFFE1C046C00700200F0000C0DC08002083
:20031C0027880FF2D02CB8A2BDA1B7F5895719D0103F40F0EE81B4F8050040B1401E04D026
:20033C00401E08BFCDF824C002E0099200E009912079012840F0DD81099ED0A0D3A740F2C9
:20035C007A418AE0B4F8050000287BD0401E04D0401E08BFCDF828C075E00A9273E0C046EA
:20037C0070726F6A6563745F7A65726F2E6300C052656365766965642047415454204D65B1
:20039C0073736167652E204F70636F64653A2030782530327800C0464D54552053697A65CE
:2003BC00206368616E67653A20256420627974657300C046466C6F7720636F6E74726F6CB2
:2003DC002076696F6C617465642E204F70636F6465206F66206F6666656E64696E672041BB
:2003FC005454206D73673A2030782530327800C04F7574676F696E67205246204649464FC9
:20041C002066756C6C2E2052652D7363686564756C65207472616E736D697373696F6E2004
:20043C006F66206D73672077697468206F70636F64652030782530327800C04661CD0000F3
:20045C000DF800000A912779A7B17F1E40F05181C9A740F21D41C4A00A9E0090019702967D
:20047C004C4603944B460493A4A30122AA4809F0A7FE3EE1BAA740F21241ECE74843492049
:20049C00436F6D6D616E6420436F6D706C657465204576656E74207265636569766564009F
:2004BC00278841F210103F1A00F0B380203F40F020812779A7B17F1E40F01B8160790090A8
:2004DC00A0790190E0794F464E460290ACA3039740F24D410496C8E705E50000DDFE00107B
:2004FC00C448494628220BF071FAC248641D272221460AF089F9BF4E97A760A000904C4671
:20051C0001974A46029640F246410394ABA30492ABE7C0465265747279696E67206D65737A
:20053C00736167652077697468206F70636F6465203078253032782E20417474656D707495
:20055C0020256400446973706C6179696E6700C053656E64696E6700426F6E644D67722071
:20057C005265717565737465642070617373636F64652E2057652061726520257320706130
:20059C007373636F6465202530366400427574746F6E203100C046C0427574746F6E203050
:2005BC0000C046C01B5B33336D72656C65617365641B5B306D00C0461B5B33326D70726523
:2005DC00737365641B5B306D00C046C0257320257300C046496E6469636174696F6E73208C
:2005FC00656E61626C6564004E6F74696669636174696F6E7320656E61626C656400C046C9
:20061C004E6F74692F496E642064697361626C656400A178079A601D0BF050FF2779661DDE
:20063C000FF2B41B0FF2B41A002F33D07F1E60D144A0009046A701976D4F40F2DE310122E6
:20065C005EA302974F4603973348049709F0B8FDA869627907210DF055FC377807B1D3460F
:20067C0034A000904E46CDF804B04F4602974C46039640F2E631049431E0C0464461746122
:20069C00205365727669636500C046C053747265616D00C0564C2BA0009024A7019740F2C9
:2006BC00CF31012245A302944F4603971A48CDF8108009F085FDA869327806210DF022FC1F
:2006DC00377807B1D34615A00090CDF804B04F46CDF808804E46039740F2D731049640A3F9
:2006FC00C3E60820494603F00FFA02E0407A05F0B5FF08980DF08CFD3CE5C04643434344E3
:20071C00204368616E6765206D73673A2025732025733A20257300C07C0300001B5B33313B
:20073C006D4C4544301B5B306D00C0464C45443000C046C01B5B33326D4C4544311B5B3053
:20075C006D00C0464C45442053657276696365004C45443100C046C0537472696E6700C041
:20077C00425554544F4E3000427574746F6E205365727669636500C0425554544F4E310017
:20079C0056616C7565204368616E6765206D73673A2044617461205365727669636520533B
:2007BC00747265616D3A20253032783A253032783A253032782E2E2E00C046C056616C7551
:2007DC0065204368616E6765206D73673A2025732025733A202573006F6666006F6E00C057
:2007FC005475726E696E6720257320257300C0464C080020DC080020DFF800F0F99B01109C
:20081C00DFF800F089840110DFF800F04FBF0110DFF800F0F1BF01102DE9F04F914C04F142
:20083C0008012046ADF1940D0CF0AEFC0FF2741A0020074600904FF4FB71019701220297B9
:20085C005CA303975046049709F0BAFC04F1500528463946E76100F027FB04F1680004F120
:20087C007401E5600AF01EF8A06170B900973846019040F207210290032203905DA304908A
:20089C00504609F09DFC00F013FB04F15C0004F180010AF007F8606178B9009738460190BE
:2008BC0040F20D210290032203905BA30490504609F086FC00F0FCFA60696B490FF0C2F9B2
:2008DC0070B100973846019040F2132102900322039059A30490504609F072FC00F0E8FA26
:2008FC0005A839462422082300F0E6FA604E4FF47A7832250D20DFF8749132680B9005AB47
:20091C0004F1D400B8FBF2F18AB26A43494600F0D7FA0E2031680B9005AB04F1F800B8FB71
:20093C00F1F189B24D432A46494600F0C9FA0125ADF83C7040F205300DF18E028DF88E506D
:20095C00294602F06BFE40F2063002210FAA02F065FE621C4FF44270294602F05FFE04F1F2
:20097C00280240F20730072102F058FE04F1B100394620220BF02AF804F1280604F1B10803
:20099C003846325C401CC0B231180B78092B18BF082B01D11F2A6DDB8018C0B22028F0DBD7
:2009BC006DE0C04670726F6A6563745F7A65726F2E6300C0496E697469616C697A696E6776
:2009DC00207468652075736572207461736B2C2068617264776172652C20424C4520737428
:2009FC0061636B20616E642073657276696365732E00C0464572726F7220696E69746961F9
:200A1C006C697A696E6720626F617264204C45442070696E7300C0464572726F7220696E2F
:200A3C00697469616C697A696E6720627574746F6E2070696E7300C04572726F722072650F
:200A5C00676973746572696E6720627574746F6E2063616C6C6261636B2066756E637469FC
:200A7C006F6E00C0C007002021AB00005DC20000A0140100491C521E404609F0C5FECDF85A
:200A9C0000803E460197504640F2452102962A460396C6A3049609F093FBC24F10200622DC
:200ABC00A023394606F00CF910200722A023394606F006F910200822A023394606F000F9C2
:200ADC0010200922A023394606F0FAF810202A461E23394606F0F4F88DF88F500EAF8DF88D
:200AFC00905028468DF892004FF481620E9604238DF89160AC4D00971020294606F0E0F811
:200B1C000DF18F004FF48062012300902946102006F0D6F824A840F202420123009029468B
:200B3C00102006F0CDF80DF191000090294640F203420123102006F0C3F80DF192002946A5
:200B5C0040F2064201230090102006F0B9F8C34910204FF0FF3206F0B3F8C14910204FF0AE
:200B7C00FF3206F0ADF81027DFF8F8A2BE48BF4A0097132351460190384606F0A1F804F1DF
:200B9C009C0032461523BA490090384606F098F8B946B948B74FCDF80090052351460190AB
:200BBC0007F10C02484606F08BF8B0463546052000908CA30195DA2102950122039585A0AF
:200BDC00CDF8108009F0FCFAAC4E94F800B0307880000FF02BF9AA4D0146E96041B34FF674
:200BFC00FF700DF0FBFA307880000FF01FF901462961E9B14FF6FF700DF0F0FAA1494846BB
:200C1C0005F11402009007230191514606F058F84746072000904FF48071019701220297B7
:200C3C0070A3039778A0049709F0CAFA85F800B03078277880000FF0F9F8934E0FF2DC1ABF
:200C5C000146F160D9B14FF6FF700DF0C7FA484600908E490191834906F14C02062306F02D
:200C7C002FF80620009040460190ED210290012203905CA30490504609F0A2FA37707D49E3
:200C9C0004F13800474688600FF2A01800900122019743460297E92103974EA0049709F04A
:200CBC008FFA04F14000A8603D46009040F211110195012202954346039553A0049509F0F5
:200CDC007FFA04F14800B060FE210090012201953E460296434603965046049609F070FAF9
:200CFC000DF13E00282239460AF070FE68490DF16600282209F088FD01210DF13E023846B0
:200D1C0006F0B6FE01200DF13E02014606F0B0FE384601210DF13E0203F0A0FF01200DF134
:200D3C003E02014603F09AFF384628210DF1660203F080FD012014210DF13E0203F07AFDE9
:200D5C00544D69782878A1B904F1200129620DF0EDFD05F154070096024605F14400019079
:200D7C0005F11C0302974C490393AB78484605F0A7FF4A4904F13002484605F0A1FF2078BD
:200D9C000DF0D4FD46490246484605F099FF20780DF0CCFD43490246484605F091FF25B05D
:200DBC00BDE8F08FCDE30000B53F00004E616D6520696E2061647665727444617461206136
:200DDC00727261793A201B5B33336D25731B5B306D00C0466C65645F736572766963652E32
:200DFC006300C0465265676973746572656420736572766963652C20256420617474726936
:200E1C00627574657300C046627574746F6E5F736572766963652E6300C046C064617461B0
:200E3C005F736572766963652E6300C0526567697374657265642063616C6C6261636B7327
:200E5C0020746F206170706C69636174696F6E2E2053747275637420257000C0C9EE0000C0
:200E7C0091F10000D5EA0000F81301005C100020D9B40000E017002038110100694F0020B7
:200E9C0070160020B410010028150020E010010089100100780C00200FD90000A5F30000BF
:200EBC005188011031810110DFF800F0A1B60110DFF800F019B10110DFF800F0C1BF011040
:200EDC00DFF800F069B201102DE9FE430DF0DEF8DFF80C81814608F1020000880027011FE4
:200EFC008CB26FF00301401880B204285ADBFF254FF6FF762046694604220DF025FBBDF85F
:200F1C0000309E4237D0002B35D0D80BC2032FD19D422DD0381FDDB280B2042815DBB0F511
:200F3C00805F12DA00F18852126801A90A60BDF804108D4207D0BDF80610401A001F80B28C
:200F5C000428ECDA01E0012300E00023BDF802001BBB211A001D8BB282B207F188511846F6
:200F7C000DF0F2FABDF80200C119091D8FB214E0BDF8020011E0BDF8020003466FF30E0365
:200F9C0063B9011D8C4208DA00200EF0B3FA48460EF094FA0020BDE8FE83241A241FA4B249
:200FBC00042CA7DA0CF0FCFB3FB10C484FF088513A460EF0D0FE0EF0CDFC48460EF07EFAFE
:200FDC004246507800281CBF0020011C03D1C7F58054391DA0B25180BDE8FE8304E001007D
:040FFC00740C002051
:20100000B41200001810000015AB0110FDB301106DC00110FDAE011099B5011000000000F7
:08102000000000002D0000009B
:20102800B01200003C100000B1C00110A9BF011067C0011069B80110000000000000000035
:041048003000000074
:20104C00B012000060100000BDC00110CDB30110D9BD01106DB3011000000000000000005B
:04106C00310000004F
:2010700000000000D81B002004000000000000000000000020000000E8C901103000000037
:2010900028100000E01B00200400000000000000000000000C000000D8CA01101800000012
:2010B0004C100000E81B002004000000000000000000000024000000F0CA01101800000096
:2010D00000000000F01B00200400000000000000000000001000000018CA01102C000000A2
:2010F00000100000001C0020040000000000000000000000200000006CCA01102400000005
:20111000FFFFFFFF081C00200400000000000000000000002800000090CA011024000000C4
:20113000FFFFFFFF101C00200400000000000000000000001400000008CB01101800000043
:20115000FFFFFFFF181C002004000000000000000000000058000000B4C901103400000011
:20117000FFFFFFFF201C00200400000000000000000000001000000020CB011018000000DF
:20119000FFFFFFFF281C00200400000000000000000000001C000000B4CA0110240000000C
:2011B000FFFFFFFF301C00200400000000000000000000003800000044CA01102800000034
:2011D000FFFFFFFF381C00200400000000000000000000005400000078C901103C000000A9
:0811F000020000006014010080
:0411F80001000000F2
:0411FC0000000E00E1
:0412000000000F00DB
:0412040032000000B4
:0412080001000000E1
:04120C002C1B002077
:0412100000020000D8
:0412140000000000D6
:0412180001C90110F7
:04121C0000000000CE
:0412200000000000CA
:0412240008000000BE
:0412280000002200A0
:04122C00281900205D
:0412300000000000BA
:0412340000000000B6
:0412380008000000AA
:04123C00EC1A002088
:0412400000000000AA
:0412440000000000A6
:04124800080000009A
:04124C00000000009E
:04125000000000009A
:041254000000000096
:041258000000000092
:04125C00010000008D
:04126000F41900205D
:041264000600000080
:041268000100000081
:04126C0090180020B6
:04127000000000007A
:041274000000000076
:041278000002000070
:04127C00000000006E
:02128000290043
:02128200010069
:02128400250043
:02128600300036
:02128800310033
:02128A002D0035
:02128C0001005F
:01128E00015E
:0812900003000000101401002E
:0812980000000000000000004E
:0412A0000000010049
:0412A4000000030043
:0412A80013C401105A
:0412AC0091F80000B5
:0412B000B812000070
:0412B400B81200006C
:0412B8000000000032
:0412BC00A01B002053
:0412C0000BFA000025
:0412C4002000000006
:0412C80068130100A6
:0412CC0030120100DB
:0412D00029C101101F
:0412D400F7E100003E
:0412D80003E500002A
:0412DC00A1C7011095
:0412E000A3C701108F
:0412E4000000000006
:0412E8007F12010070
:0412EC00400F0100AE
:0412F000580F010092
:0412F400280F0100BE
:0212F8000200F2
:0212FA000900E9
:0212FC000100EF
:0212FE000000EE
:0113000001EB
:0413040099F9000053
:0413080089E1000077
:04130C00C5EF000029
:0413100069E400008C
:04131400C1E1000033
:041318001DD60000DE
:04131C001DB20000FE
:0413200023FC0000AA
:0413240049CB0000B1
:0413280015C70110D4
:04132C0025C70110C0
:201330002DE9F84FDFF82485DFF82415DFF8246588F80000002008600821DFF81C050170B6
:201350000D21418040F221318180DFF810050660B77EDFF80C050770FF2FF17E417008BF0E
:20137000FF29327F8270737FC370B57F0571F67F467115D1FF2A08BFFF2B11D1FF2D08BFC2
:20139000FF2E0DD1DFF8DC140A7802704A7842708A788270CA78C2700A7902714979417131
:2013B000DFF8C41402780A70FF2542784A7082788A70C278CA7002790A714079DFF8AC2424
:2013D0004871DFF8AC14DFF8AC04057045708570C5700571457100200880DFF89C144E6BBE
:2013F000DFF898147078087031781170B078DFF890140870B1680879DFF88814421E0A70CE
:20141000F078DFF884140870F068DFF88014086008B90EF075F83069DFF87444206008B9AD
:201430000EF06EF82068DFF86C7401688847216851F8042F38469047DFF85C04DFF85C14E9
:201450003862DFF85C0478627069086008B90EF057F8B069DFF84C14086008B90EF050F8C3
:20147000F069DFF84414086008B90EF049F8DFF83CB4DFF83C649BF804000EF03FFB3060CF
:2014900008B900F045B99BF80500DFF828740EF035FB386008B9306837E19BF80600DFF8DB
:2014B00018440EF02BFB206020B930680EF036FB38682AE19BF80700DFF800940EF01EFBB5
:2014D000C9F8000038B930680EF028FB38680EF025FB206819E1DFF894130A789BF80000BE
:2014F000DFF8DCA3921C504380B20EF007FBCAF8080058B930680EF011FB38680EF00EFBEF
:2015100020680EF00BFBD9F80000FEE0D7480078002800F00281BBF80210DFF8A8B34843CC
:2015300080B20EF0EBFACBF8040078B930680EF0F5FA38680EF0F2FA20680EF0EFFAD9F83F
:2015500000000EF0EBFADAF80800DEE0C74800780EF0D4FADC49086080B930680EF0DEFA79
:2015700038680EF0DBFAD9F800000EF0D7FADAF808000EF0D3FADBF80400C6E0BB480078AB
:20159000182148430EF0BAFAD04A1060B0B930680EF0C4FA38680EF0C1FA20680EF0BEFAE7
:2015B000D9F800000EF0BAFADAF808000EF0B6FADBF804000EF0B2FAC348A5E0AB48007894
:2015D00040010EF09BFAC2490860D8B930680EF0A5FA38680EF0A2FA20680EF09FFAD9F8C4
:2015F00000000EF09BFADAF808000EF097FADBF804000EF093FAB44800680EF08FFAB34996
:20161000086882E09948007800010EF077FAB1490860F0B930680EF081FA38680EF07EFAED
:2016300020680EF07BFAD9F800000EF077FADAF808000EF073FADBF804000EF06FFAA248F2
:2016500000680EF06BFAA14908680EF067FAA0485AE08648007800010EF050FA9E490860F6
:2016700018BB30680EF05AFA38680EF057FA20680EF054FAD9F800000EF050FADAF80800E7
:201690000EF04CFADBF804000EF048FA8E4800680EF044FA8D4908680EF040FA8C480068AB
:2016B0000EF03CFA8B4908682FE070480078302148430EF023FA894A106070BB30680EF068
:2016D0002DFA38680EF02AFA20680EF027FAD9F800000EF023FADAF808000EF01FFADBF8BA
:2016F00004000EF01BFA784800680EF017FA774908680EF013FA764800680EF00FFA754966
:2017100008680EF00BFA744800680EF007FA00200DF0F6FE4FF4804191E03168012008716A
:201730003068057331684D73306885733168CD7330680574002031684D743268D072A0229E
:201750003168487103213068C28001720720316848720020326890722821306841820121BA
:20177000C176002031684877326882F85E0001203168087732684B4E82F85D0039680871DB
:201790003868057339684D73386885733968CD7338680574002039684D743A68D072396827
:2017B00048713A6890724FF4207039680022C88008818A7401213A68D17421680D732268BB
:2017D000557321688D732268D57321680D740021226855742368D972012122681171002133
:2017F000236859712168C8800881002088722168887405202268D074394801688847316846
:20181000054608688047326852F8041F0020884719481D4BC16818780A88324902430A80E2
:20183000284631490A6890470C2130480EF00CFE10480EF005FE0EF0FFFD4FF4005198F843
:201850000000BDE8F44F08F03DB800BF6E4F0020044F0020B63F0050604E0020084F00200A
:201870002C4E0020E81200503C4E00207B4F00200C4F0020344E0020C81401006D4F00200A
:201890006B4F0020724F00206C4F0020F04E0020F44E00207C4B00200DFB0000F84E00208D
:2018B0002DFB0000FC4E002000250020941B0020104F0020144F0020184F00201C4F00205E
:2018D000DC240020684E0020004F0020804E0020844E0020884E00208C4E0020904E0020C5
:2018F000DC150020544F0020E0150020F84D00202DE9F04FD44C04F118012046ADF1340DC2
:201910000BF048FC00264FF6FF7066700121208204F1A4000CF004FD022104F1C8000CF092
:20193000FFFC042104F1EC000CF0FAFC4FF0040A04F1440810224046314684F802A00AF0CF
:201950004BF804F154091022484631460AF044F804F11C073E6004F10A052E70E67126722E
:2019700007206072CDF80080DFF8F882022210200346414605F0AAF9102003224146CDF86B
:201990000090034605F0A2F91020524641460097134605F09BF94FF0080B4FF0030905F173
:2019B0002A00079005F17900089005F11E00099005F15A000A9024350B9517E06078A28FBF
:2019D000E18FB4F84050B4F8423006280ED1ADF80A20ADF80C10ADF80E50B948ADF81030A7
:2019F0000EF03EFA012002A909F0B2FDA069B34A31464FF0FF33FEF705FF071CF6D00596C2
:201A100006A80DF11A0105AA0CF05AFD002840F0BD81BDF818102078102940F0B3819DF8B0
:201A30001A10884240F0AE81059D29884FF6FF728A4200F09C812B78A23B00F07F812E3B88
:201A500040F0A081A978B046002900F03B81891E00F00A81491E012940F2D980891E00F064
:201A70009C80491E6FD0491E5CD0083900F05681891E40F0598194F83A30A888052BADF84D
:201A9000080047D001208DF812008D480EF0E8F994F83A0001281ED004281CD003280DD0AE
:201AB00002280BD00598C188ADF80A100189ADF80C104189ADF80E10818927E0A08FE58FE0
:201AD000ADF80A00B4F84030ADF80C50B4F84210ADF80E301AE0A08FE9888842D8BF081C2A
:201AF000ADF80A002989E08F8842D8BF081CADF80C006989B4F840008842D8BF081CADF8C8
:201B10000E00A989B4F84200884200DC0846ADF8100001E08DF81260A849102002AA05F044
:201B3000D5F801E1A6480EF09BF96B78002B40F0FB80E88860822889A0826889E08260488D
:201B50000DF0B4FFF0E0AA88B449102005F0BEF807984146062209F03FFF6682A682E682EE
:201B7000A879207356480EF07BF995480EF078F94FF001084FF6FF702379208253B9A879DE
:201B9000082812BF84F801A00520607040460DF0ADFFC9E084F80190C6E06B787BBB291D38
:201BB00007980A680260898881800623637068892082E8896082288AA082688AE082E87826
:201BD000E07294F83A00012818BF02280BD1994910201F2205F07AF84FF47A7180B2414339
:201BF00037480CF0CDF9688900909149CDF804A0EA7810202D1D2B4605F068F897E06878D7
:201C1000312840F08880E67084F801A08FE06B78002B40F08080A878E3896178032815D08E
:201C3000E078257923B9012814BF2671E67006E0054304D0804819460CF0A2F96178072910
:201C5000E2D10620607072E0780C0020062907D0E578002D08BF84F8019068D00220F1E73F
:201C70000720EFE767F300006B78002B53D1EB78617893B902291DD007291BD0062902D10E
:201C90002079012816D1032914D06B480DF00EFF80B901200DF02AFF0CE00CF04DFE0246C3
:201CB000A07962490090089843460190102005F00DF868706D78002D2DD135E00700008058
:201CD000400D00206B7833BB5C485749009002221020034604F0FAFF59484A4652490090FC
:201CF0001020034604F0F2FFED1C099829680160A98801238180207863700CF01DFE0246BA
:201D100001230A9D6079494900901020019504F0DDFFC0B258B184F801B008E0AA8841490B
:201D30001020052304F0D2FFB8F1010F2AD1256A45B32D6835B36078A84723E068791328D8
:201D500020D12889012808D1607B022805D11C480EF086F80CF0E6FB14E03649102005226D
:201D700004F0B4FF81B216480CF00AF90AE06888C00B07D3334852462B49009013461020FD
:201D900004F0A4FF059808B10EF019F82579E078790830D355EA00032DD0204600788DB95A
:201DB000E179257A8DF808100B9A8DF8095013680DF10A052B609288AA8005E00516011092
:201DD000640D00208DF80890617A8DF81010A17A8DF811100CF0B0FD1149024602AB1020DC
:201DF00004F074FF38B1256A84F801B01DB12D680DB15846A847B80803D31349304609F0B8
:201E1000A7FBF808FFF4F2AD607B401E3FF4D6AD401E7FF4EBAD0CF085FBE7E555D10000B8
:201E300059440110C1170110CD86000009450110A58A0000ADF600001C0D0020BC0C002046
:201E5000CC0C0020940C0020B20C00202DE9F84FD84CA178FF2904BF00200DF051FBA078D6
:201E70000DF056FD044604F1680504F190062968086810B10022E2830CE0A87B002804BF88
:201E9000A97E002906D13078002801BF217F0129608CE0832189E08B4118491C6181204647
:201EB0000EF0C6FA01281EBFC3480178012904D120890022401CE28360814FF6FF77A87E7D
:201ED00001280DD1AA8B618920890EF0ADFA38B1218960894A1C93B298421BD0A88B0FE070
:201EF0003078012816D17288618920890EF09CFA80B1218960894A1C93B298420AD07088DE
:201F100092B2904206D03818608180B20EF088FA3F18E78304F5967999F8040020B120890A
:201F30000021401CE183608104F12E07A87E01283ED12289A88B521C92B2904238D16081FB
:201F500004F1860120460EF067FAA88C6189608400202077E083E0894118A181A88B218953
:201F70000EF05EFA8046B988288C6A8C01FB0808E88C8A4204BF3989884202BFA98CFB8836
:201F9000994207D000090090AB8CA179520800200EF03EFAA87F3870688CB880A88CF8803E
:201FB000E88C388120460EF02FFA0220A87601E0B7F80480B4F81EC02268804ED2F80CE06B
:201FD0000CF1010000FB08F340F6C41000FB03F18E44C2F80CE03668DFF8E4E13678BEF8EE
:201FF0000080784AB609032E11D1D67BF60748BF4FF000080BD408F101081FFA88F6012E7A
:2020100012BF668AB9F8066006F2DC5600E0668A5E434FF4C87AB6FBFAF6761C6661AEF818
:202030000080A3614FF0180894F806A084F820C008FB0AFADFF890C1DCF800E023680EF1B2
:20205000080656F80A601E610EF1080694F806A008FB0AFACDF800A0D3F80CB0D4F814A079
:20207000ABEB0A0ADDF800B046F80BA094F806A008FB0AFA56F80A609E600EF10C06A3791C
:2020900008FB03F30EF10C0EF65C06F0F00646F002060EF803604FF0000ADCF800E0A6791D
:2020B0000EF1020308FB06F623F806A0474BA6791B68760103F1140AD4F814B05AF806A007
:2020D0000AEB4B0A03F1140B4BF806A0AD7E022D0CD1A5796D0103F1140697F800A07659DB
:2020F00000FB0A6603F1140A4AF80560BD88D27BA779D60739D508FB07F70EF10806F259B6
:20211000A2F5A862F2510EF10807A27908FB02F2BA582768511A3961BA6003F11402A179C7
:20213000490103F11407525802F5F6627A5003F11401A27952018958C9F800106843244A31
:20215000156BA779296803F11C067F01401AA0F51670F0511F49A07903EB40100B78012B84
:202170000EBF0122916A4A7811E003F114017F012A46C9594243A1F5E661A2F51672914242
:20219000DCD3082120460EF03BF901200FE0C272A179DCF80000104A08FB01F10844216869
:2021B00048600720107020460EF026F90020BDE8F28F00BF684E0020784F0020084F002004
:2021D000182500205C4D0020804E0020844E0020C8140100734F00206F4F0020BB482DE933
:2021F000F84F0025BA4CB849056094F8E200002800F06581012800F02F81B64E02283CD088
:20221000032840F05C8151F8250CD4F8B8100029A0F5C060C4F8D400B8BF49420028B8BF59
:202230004042814226DA4FF08057D7F8A4014568B4F8BC0030214FF47F4208230090304624
:20225000A847D7F8A4014568B4F8C00004214FF4F802122300903046A847D7F8A401B4F846
:20227000D070456820214FF440620A2330460097A847012584F8D8501CE151F8258C0DF054
:20229000D5FC2F4600B901273946934F38680028FCD0B146012609F10409D9F82CA03E60B2
:2022B00009B10DF0C9FCCAF30720C4F8BC000DF0BDFCAA4600B9B2463B68002BFCD0D9F874
:2022D00000B0BAF1000F3E6001D00DF0B5FCCBF38440C4F8C0000DF0A9FCAA4600B9B24626
:2022F0003B68002BFCD0D9F81C90BAF1000F3E6001D00DF0A1FCC9F38120C4F8D000B8F55E
:20231000C061C4F8B81000F09C8094F8D80068B9C4F8D410D4F8C000C4F8C800D4F8BC70CF
:20233000C4F8C470D4F8D030C4F8CC30D4F8D400D4F8BC30002854BF02226FF0010204F10B
:20235000C8010F6800EB40008018421000EB927207EBA2000860D4F8C810C4F8C4300029B0
:202370001CDD1E293CDDD4F8CC0030B93429B4BF15391E21C4F8C81025E02A29BABFD4F8E5
:20239000C8000B381E20C4F8C800D4F8C4003F28B4BF401C3F20C4F8C4001FE0D4F8CC0024
:2023B000032812D011F10B0FC6BFD4F8C8000B30301CC4F8C800D4F8C4000028C4BF401E27
:2023D000051CC4F8C450032508E011F1150FC6BFD4F8C8001530301CC4F8C800C4F8CC50C0
:2023F0004FF08057D7F8A401B4F8C43030214FF47F424568374800930823A847D7F8A40101
:2024100004214FF400321123456832480096A847B4F8C860D7F8A40104214FF4F802122353
:2024300045682C480096A847D7F8A40120214FF440620A23B4F8CC60456826480096A847A7
:2024500001E084F8D85040F2FF50404502D8801C40452FD2082030E051F8251C1F4F4BF278
:20247000F5204843060A3868C0F3814001280CD11B480068006880470BF000FC0DF0E2FBB7
:202490003111C010484306EBE03694F8E50030B91448006820F07F403618760801E084F872
:2024B000E5501148310C0660012741600F4D8760287808B90B2000E0052084F8E40004F0EA
:2024D00075FABDE8F88FC0462D400C402C500C401414002000A00C4000800C40B43F005087
:2024F000EC010010102009403C600C404D1301002DE9F04F09AFADF13C0D08900A92388825
:2025100009911E46ADF81800101C08BF002000F06C81017800274FF0010B401C4FF0FF3942
:20253000B846DA460A9058E1252940F04D810178401C0A902D2918BFADF8068004D1017839
:20255000ADF806B0401C0A9030291CBF4246434604D10178401C5A465B460A902A29CDF838
:2025700000804D4617D1049330680A9BCDF80890C01C20F00300001D306050F8044C19785A
:20259000002C009403F101000A9018D5ADF806A06442009413E044460AE0600000EBC400F4
:2025B0004018A0F130040A9801780094401C0A90302901DB3A29F0DBCDF8089004932E299B
:2025D00029D10178401C2A290A9011D13168CDF80880C91C21F00301091D316051F8045C0D
:2025F000002D48BF454601782B46401C0A9011E0454643460AE0680000EBC5004018A0F13C
:2026100030050A9801782B46401C0A90302901DB3A29F0DB02930AB1224604926C2904D0D9
:202630004C2918BFADF8048004D10178ADF804A0401C0A900BA8CDF80C800FAB07906429A6
:20265000059379D0692977D0BDF818C0752965D0782961D06F295DD0702946D0632936D078
:2026700073291AD00A98401E0A900998012812D961490C68B5F1FF3F03D0A84288BF6D1CE6
:2026900000D8099D029508A80AA932466B46A0473F18039865E0454617E03068C01C20F065
:2026B0000300001D306050F8040CBCF1010F014608B94FA0014607910DF05CF90390B5F1E4
:2026D000FF3F4FD0A8424DD9039528464AE03068C01C20F00300001D306010F8040C8DF87C
:2026F0002C005D46039558463CE0082035680490E81C20F00300001D306050F8041C0822FA
:2027100010230FA809F0C8FC401E079040210170079823E0082302E0102300E00A233068B4
:20273000C01C20F00300001D306050F8041CAA42BCBF2A1C04920DE03068C01C20F00300CE
:20275000001D306050F8041CAA42BCBF2A1C04926FF009030FA809F09FFC07900599081A04
:202770000390009C241ABDF8065000945DB906E008A8202109AA0CF054FA7F1C009C641E9A
:202790000094F5D50398401EB0F1FF3F03900FD1BDF8060001281CD10098401E009018D43D
:2027B00008A8202109AA0CF03CFA00987F1CF4E70798017809AA08A80CF033FA0798401C86
:2027D000079003987F1CDEE708A809AA0CF029FA7F1C0A980178401C0A9000297FF4A4AE3B
:2027F000089808B14146017038460FB0BDE8F08F286E756C6C2900C0AC1401002DE9F84F2D
:202810000C46E00788B00BD50DF060F928B100218160AC48006800B1804784F001004EE1AE
:20283000A00710D5002006900021049000230290009005910393019101223C200DF0D8FD3D
:2028500084F002003BE11D2560079F4E9F4F40F18A800020079083469D498878FF2804BFC7
:2028700000200CF04DFE386890F8A0000DF050F880463868C07A98F82691022818BF0328C1
:2028900008F5907A06D106F10D000DF0ADFD08B906F1070B514648460DF0A2FD88B3386839
:2028B000807A002818BF012804D1314650460DF093FD04E05246494630460DF089FDFF284C
:2028D00034D005FB00F906EB090506225146E81D0CF020FF16F8090040F00209E81D07901F
:2028F00006223868817E01F0010188F8261105F1010A386800F1140108F590700CF00AFFAE
:2029100014E0514648460DF05FFD78B15246494630460DF05DFDFF2808D006F10D0145438C
:2029300048190DF061FD08B149F0020908F12C004B4601780691418909090591B8F82220A4
:20295000079904920122C088029140080390CDF804B0CDF800A0002098F806100DF048FD72
:2029700084F00400ABE0200610D500200690002104900023029000900591039301910122A8
:202990003B200DF035FD84F0800098E0E0043BD5F11D06F10D000DF013FD3868417901299A
:2029B00023D1017A012918BF04291ED1C17A022918BF032919D1817E00F1140230460DF0AF
:2029D00007FDFF2811D04543354405F10D000DF00BFD50B9E91D05F10D000DF0F1FC386836
:2029F0000622E91D14300CF095FE3A493A484A6800784FF480510AF0FBFE10B18E2008F029
:202A1000EFFE84F480505AE0A00505D50DF00EF9324901200860FEE7610504D505F0D1FCCA
:202A300084F480604BE0600405D5812008F0D8FE84F4804043E0A00440D5294D286810B17B
:202A500000200CF05DFD274E4FF0FF3028600DF0B3FC3168244D51F8202F68469047234847
:202A7000416A826A036B0091019221490291C16A0A68016AADF8101003921978002904BF41
:202A90005868002805D19A68002A04BFD868002806D02970596869609868A860D868E86088
:202AB00029463568134A2E6813486B46B0471349086004F0D3F984F4005000E0002009B0FF
:202AD000BDE8F08F204F0020AC450020104F0020684E0020784E00206E4F0020FC002043AB
:202AF000044F0020F04E00206845002060190020CDFA00002C4D002060230020EC4E002032
:202B10002DE9F84FB34D686884B0019020B905B0BDE8F04F0DF04CBC0178DFF8BC82AF4EB1
:202B3000DFF8BC92DFF8BCA201291CBF0229042946F2A81741F64C5B05D0402918BF80293B
:202B500000F097803DE10DF0ADF80028FAD00198007805F0F5F90090446814B900200CF093
:202B7000CFFC9AF8010000285DD002F083F90CF0CFFE02900168009801914F6809F09CFBEF
:202B9000022827D000990A78012ADBD1964B19680A7A19F80230337018B90DF005FC5844DB
:202BB000A0602069C17E01F0EF01C1762069C17E41F08001C1762069C17E01F0F00141F099
:202BD0000201C1768948B96841182069C161012100989DE0019886490278802A12D10823E4
:202BF00033700878012803D09AF80110012903DD39690120C87210E0D8F828003A690178F8
:202C1000D1720AE0072030700978386901290EBF0122D8F828104A78C27202988179019849
:202C30008AF80210C8E0009800288BD00199009A0078914205D101281CBF00200CF060FC5C
:202C500015E0012840F0BD80674801680A7A19F8020030700DF0A8FB3918A0680DF0A0FBF9
:202C700018B90DF0A1FB5844A0600120A8700098A2E09AF8010000287AD002F0FBF80CF005
:202C900047FE04462068029047689AF802000CF03FFE03900DF00CF810F0070F3DD0A87828
:202CB00005F04EF90190416801980091029909F003FB022831D001990A78012A2AD14A4BD0
:202CD00019680A7A19F80230337028B90DF06CFB83440098C0F808B000990869C17E01F0AB
:202CF000EF01C17600980069C17E41F08001C17600980069C17E01F0F00141F00201C176E7
:202D1000009AB968394841181069C16101210198A97051E000200CF0F3FB0398A04225D0F2
:202D3000029833490278802A12D1082333700878012803D09AF80110012903DD39690120AC
:202D5000C87210E0D8F828003A690178D1720AE0072030700978386901290EBF0122D8F825
:202D700028104A78C272A0798AF80200029823E00CF09EFF10F0070F29D0A87805F0E0F846
:202D900004462078D4F80480012820D116490A68107A19F8001031700DF006FB3918D8F89B
:202DB00008000DF0FDFA20B90DF0FEFA5844C8F808000120A870204605B0BDE8F04F06F0A7
:202DD0003FBE05B0BDE8F04F00200CF099BB05B0BDE8F08FDC240020C81401006F4F002029
:202DF000289A0110684E0020104F0020F0D8FFFF734F00202DE9FE4F0F469C4C0168E162A7
:202E100041688068E0609A48A16080479948E16A0160A168DFF87CB24160E168DFF87082D9
:202E300081609549002FA246C1606AD03D68E8788DF8080028798DF8090002A80DF0ACFA43
:202E5000A86808B18D490160E86808B18C4901608C4C287820706878BE686070A878B2680B
:202E7000A0703178A2607368E1702E696360EA6926627968E2620868E06068697B686062DB
:202E9000A8699E68A062286A20631EB900200CF037FB00E066617868C06818B900200CF033
:202EB0002FFB00E0A0617868006918B900200CF027FB00E0E0617868406818B900200CF009
:202ED0001FFB00E0206128692062F86881680E6806B96E4E6C494FF001094E60C66881F8C7
:202EF00001902EB900200CF00BFBF868454601E045462E6000685C46FE68A0617068E061B9
:202F100006E000200CF0FCFA4FF001095C46454628686149466804F108035A465020B04744
:202F300010B1286880688047DAF8080080475C4F0026834669467E7058483E700422606174
:202F500030460BF007FB0098B0F5801F0CD020B90BF0FAFDFDF7BEFF08E00AF027FC0CF0B9
:202F7000FFFC0420788001E00BF0EEFD4D4FB0462868C7F808808069E660804778604A489A
:202F9000468080F8009014200CF0B8FDFF211422A0620CF06DFFE01CFF2102220CF068FF0B
:202FB00014200CF0ABFD414908600868142231460CF05EFF3046FEF7B3F948460AF0D6FE4E
:202FD0003B480188FF2906D1022101807822001D31460CF04DFF03200DF0DAF904200DF0A8
:202FF000D3F905200DF0CCF906200DF0C5F9072009F074FD2F4E0820307006F124000DF03F
:20301000B7F909F0FDFE06F1360705200A213A460CF0A1F938B14046C0F10901401C07F8DD
:20303000011B0A28F8DB3078102106F04BFC2F68214909200DF10A0201AB7D6808701020DC
:203050004146A847A06ADAF80C10E2690A270A309DF80A307F1E00F8013BF9D1921E584684
:20307000E261884702F096FFBDE8FE8FD415002041490010F8440020600401007DEA0000AA
:2030900095F6000060190020B81B00205BBA00004C1C0020541A002059EF0000F5F60000AB
:2030B000740C0020D0240020DC18002010250020F41600208C110020242500202DE9F84F36
:2030D000DFF8B4B20F460546F80B80F01F81DFF88482B80880F01081A14EDFF888A2B80F9B
:2030F00080F0BE80B80B80F0AB803809C0F02A8108200CF0BFFD002840F09D8080200CF027
:20311000B9FD002840F09780684607F099FA012803D10098002800F08E8000250124E8B2A3
:203130000CF080FA48B1837A3BB1847290F9090004FA00F0C0B20AF007FF6D1C032DEED3C5
:2031500045464FF00309686885F8109070300CF063FE8148002301680360804950F8082CA2
:2031700098461A4640F8088C05F134000CF060FE3068006B80470146AA68A869891A090BC6
:20319000C1F1FF3282422CBF08444FF0FF30A8612E7F1EB1E968B0EBC12F1ED90BF0C0FFC1
:2031B000414600B12146081C14D0504640F60901018041464180427B64F303024273027B6E
:2031D00061F30302027341600CF060FC418811F4406FFBD02C774146A9616348016821F077
:2031F000020141F400710160604941F8049C41F230028A600C6050268E600C604FF4CA6239
:203210008A600C6041F80C4C4446046002200BF053F8112006F0B6FB287818B968683830E0
:203230000CF012FE687F18B16C7705200BF044F82C744F48686109F023FC27F0080781E0E4
:2032500046467C36366846B1B06830B13069B6F92C10B46800222023A04727F4005771E0E3
:203270003446606D016804208847D0B1287CC0B1464608363068A0B106462068006B80474C
:20329000E968801BE860000B8842E86002D240184008E86040F6C41181422CBFB0F5FA7F3A
:2032B000E96051460D310978002011F00F0F18BF0120464660B9688C40F60901814207D1B4
:2032D000AC6928466FF4807100224FF00073A047284906F1340000220CF0AAFD0220307425
:2032F00009F0CEFB6C69002128464FF080630A46A04727F0005725E005F0D8FA454605F184
:203310007406306808B927F002071BE00CF08AFD59460E6896B1B16A89080FD2B46AB16A0A
:20333000A143B1620DF020F8B06848B130692246B6F92C10B4680023A04701E00DF014F864
:2033500027F4804727B1584639462C300CF084FDBDE8F88F701C002014100440A5EE0000DA
:203370008C01001098240020000004600C410440559700001D680000F01C00202DE9F04FDD
:20339000DFF8A0B2804609AFFF200E461C460025ADF1240D97F8049007903F8830780592ED
:2033B000022805D17068008842F60211814273D0304609F077FE5EA3069018B3401E0ED0CA
:2033D0002846009001904FF40A7102900322039050A304904BA006F0F9FE0A208FE065A049
:2033F0000090CDF8048040F2232102940122039744A0CDF8109006F0E9FE5946142001F130
:20341000040911E05DA00090CDF8048040F215210294012203973BA0CDF8109006F0D6FE03
:203430005946282001F10209B84214DD07EB040A50450ADBF06805992246C01907F0EAF922
:20345000A9F800A00698079013E0284640F233214CA30D2504E0284640F22E2152A30725EA
:2034700000900190029003900322049025A006F0ADFE0798FF280DD0DBF8080050B10668EA
:2034900046B1E419A0B20090069A059B41F230114046B047284632E0B9F1FE0F0CBF0FF212
:2034B0002C190FF24419304609F0FCFD00904FF4FD71CDF804800122CDF808904DA303955F
:2034D00010A0049506F082FE0097059A40462346314609F02BF9594608310F68051C0DD116
:2034F00067B1786850B1304609F0DCFD00947C68059B024641F230114046A047E8B209B0E7
:20351000BDE8F08F646174615F736572766963652E6300C041747472696275746520776190
:2035300073206E6F7420666F756E642E00C046C05772697465417474724342203A2025732A
:2035500020636F6E6E48616E646C6528256429206C656E28256429206F666673657428253A
:203570006429206D6574686F64283078253032782900C04653747265616D00C05374726941
:203590006E6700C0496E76616C69642076616C7565206C656E67746820776173207265631B
:2035B00065697665642E00C0416E20696E76616C6964206F66667365742077617320726541
:2035D000717565737465642E00C046C02D20726573746F72696E6720626F6E6465642073A3
:2035F0007461746500C046C02D204F54412077726974650057726974654174747243422080
:203610002843434344293A20706172616D3A20256420636F6E6E48616E646C653A202564F1
:2036300020257300281500202DE9FC41A0F2013714468846022F40F232819B4E9C493F1FDE
:203650000F2F04D9143F4CD0BF1E1CD011E0DFE817F0CF00C9000D01FA00C100B900260107
:20367000AF00A700100010009D008F007F00740066002A2880F21381B8F1020F40F00F816D
:203690008849238807E1B8F1010F40F00881F078012800F00481324620781179107189B9E1
:2036B000002800F0FC805078012800F0B580042800F0B280062800F0AF80052800F0AC806C
:2036D000BDE8FC812078002840F0E9805078032800F0AF80072800F0AC80052840F0DF8046
:2036F000A7E0B8F1010F40F0DA802078012840F0D68006F1EC000CF0D9F9002840F0CF8051
:203710003446002004F13A0107F022FF002840F0C68004F1C8000CF0A3FBBDE8FC81B8F1F7
:20373000020F40F0BC8020880A28C0F2B880B0F5486F00F3B4808E1C17E0B8F1020F40F02A
:20375000AE802088B0F5FA7F80F2A9800E460CE0B8F1020F40F0A38020880628C0F29F80D6
:20377000B0F5486F00F39B803E363080BDE8FC81B8F1020F40F0938020880628C0F28F80F5
:20379000B0F5486F00F38B803C36EEE7B8F1010F40F085802078062880F28180454E0EE0D0
:2037B000B8F1010F7BD12078042878DA0A3606E0B8F1010F73D12078082870DA09363070CA
:2037D000BDE8FC81B8F1010F69D12078042866DA0836F4E7B8F1010F61D1207804285EDCBE
:2037F000F61DECE7B8F1020F59D120880E36BCE7B8F1010F53D13079012850D03246207881
:20381000D178D07069B9002849D05078012803D0042818BF052842D101200CF067F9BDE883
:20383000FC81207800283AD15078022818BF052835D110780BF080F81C490246102003F069
:2038500045FABDE8FC8106F1830500211F22284608F0C2F821464246284606F0DBFF44463F
:203870003078B4710BF068F8002311E006F1640500211F22284608F0AFF8214642462846D0
:2038900006F0C8FF4446307874710BF055F801230094094901950246102003F017FABDE83B
:2038B000FC81C046CDE30000780C002099450110B80C0020B20C0020094501102DE9F04FBC
:2038D0008246DAF800600C465FEA0208ADF11C0D14BF00214FF0FF3106F1480083460CF00B
:2038F0007AF8002818BF0B2040F00D8100258848F460B8F1010F057007D0657002200AF01F
:20391000A1FE06200AF09EFE01E0012060702078012840F2AB80801E012868D9801E01287D
:2039300033D9801E012800F2DF800CF07BFA06904FF0805000F5EE77D0F8DC01A378466A73
:20395000009321782846062908BF0120019001200290A068228AE1686368B047814606983E
:203970000CF002FDB9F1000F40F0C080B8F1000F02D00BF09FFE02E050460AF080FF0028D8
:2039900000F0A4803868806A2AE00CF04BFA06904FF0805000F5EE77D0F8DC0101230668F8
:2039B0000093A168A27860682478AC46042C08BF9C466346B047814606980CF0D5FCB9F196
:2039D000000F40F09380B8F1000F02D00BF072FE02E050460AF053FF002877D03868406815
:2039F00080474A49C1F8B0510D6081467EE00CF019FA06904FF0805000F5EE76D0F8DC015F
:203A1000E38A87690093E0680190208B0290A0780390207D04900121059122782846022AC8
:203A300008BF081CE1786268A368B847814606980CF09AFCB9F1000F58D1B8F1000F02D0FB
:203A50000BF038FE02E050460AF019FF00283DD03068006A80475FEA000947D13068C5696D
:203A7000A168E28A2369E078A847BEE70CF0DAF906904FF0805000F5EE76D0F8DC01E38A6A
:203A9000C7680093E0680190208B0290A0780390207D2946049001200590257805B901469B
:203AB00008466268A368E178B847814606980CF05BFCB9F1000F19D1B8F1000F02D00BF09B
:203AD000F9FD02E050460AF0DAFE08B914201AE03068406980475FEA000907D13068026972
:203AF0002169E078904780E74FF0FF39B8F1010F05D002200AF0E0FB06200AF0DDFB584604
:203B10000CF0A2F9484607B0BDE8F08F5045024022250020F0B507460020ADF11C0D0E462A
:203B3000044664A500900322019464A30294DA2103942846049406F049FB64A3B81E09D0B3
:203B5000801E00F09E80401E7DD0401E5DD0401E3CD01BE0012E0CD00094019428460294D6
:203B7000ED2103940322049406F030FBEE215AA393E00094019428460294E8210394032241
:203B9000049406F023FBE92158A386E0009401942846029440F2051103940322049406F03F
:203BB00015FB0094204601904FF4837102900322039054A30490284606F008FB01208DF841
:203BD00017009DF817000028FBD170E00094019428460294FF2103940322049406F0F6FA47
:203BF0000094204601904FF480710290032203904AA30490284606F0E9FA01208DF8160028
:203C10009DF816000028FBD151E00094019428460294F92103940322049406F0D7FA0094CE
:203C300020460190FA2102900322039040A30490284606F0CBFA01208DF815009DF8150013
:203C50000028FBD133E00094019428460294F32103940322049406F0B9FA00942046019084
:203C7000F42102900322039036A30490284606F0ADFA01208DF814009DF814000028FBD106
:203C900015E00094019428460294E02103940322049406F09BFAE1212EA3009420460190B4
:203CB0000290039003220490284606F08FFA07B0F0BDC0466D61696E2E6300C03E3E3E53BC
:203CD0005441434B20415353455254002A2A2A4552524F522A2A2A003E3E20494E5445521B
:203CF0004E414C204552524F522100C03E3E20494E5445524E414C204657204552524F52EE
:203D10002100C0463E3E2044454641554C54205350494E4C4F434B2100C046C03E3E20576E
:203D3000524F4E47204150492043414C4C2100C03E3E204943414C4C2054494D454F5554DE
:203D50002100C0463E3E204943414C4C2041424F525421003E3E204F5554204F46204D4577
:203D70004D4F52592100704710B50B7884074CBF43F0020303F0FD0304064CBF43F0800340
:203D900003F07F0304074CBF43F0080303F0F70384064CBF43F0200303F0DF0310F0AA0FE4
:203DB0000B7004D0107840F00C00107010BD18B9117801F0F301117010BD2DE9F8430D4662
:203DD00000272878022814461E4667D1696808784978DDF8208000EB012080B25FEA0801D5
:203DF0001CBFB0F5285F0B205BD14FF42851401A08D0401E21D0401E2FD0401E25D0401E0A
:203E100031D04BE0DDF82490E8680CF033F880B2A0EB08024A45BCBFA0EB08001FFA80F970
:203E300009EB0800162806DAA6F800904A46E86800EB08010DE00D2732E0E8680088022128
:203E500031802070000A60702AE0062030800622E96820460BF05EFC22E001203080E86800
:203E7000017821701CE0E868B0B108213180018821700188090A61704188A1704188090A64
:203E9000E170818821718188090A6171C188A171C088000AE07103E0378001E037800127E0
:203EB0003846BDE8F2832DE9FC470F4600243978022970D1804678680A9E0178DFF8E0A04D
:203ED0009146427801EB022189B24FF42850091A1D4606D0491E29D0491E4ED0491E39D08B
:203EF00059E0F8680BF0C6FF80B2B04204D3A819162803DB0D244FE007244DE0FB682A46F6
:203F1000494698190BF006FCAD19F868ADB2C5F11602002140190BF0ABFFDAF800000028E8
:203F30001CBF0268002A37D0002123E08EBB022DE0D199F8000099F80110FA6800EB01200D
:203F50001080DAF8000000281CBF0268002A23D001210FE0EEB9062DCCD1F86806224946C6
:203F70000BF0D8FBDAF8000000281CBF0268002A12D00321404690470EE056B9012DB9D1E2
:203F900099F80000002813BF0128F9680870802402E00B2400E001242046BDE8F687000042
:203FB000082500207CB5894D144602460026A2F58062182A1AD8DFE812F0FE00F800F10078
:203FD000E900E200DC00D500D0001900C500BE00B700AE00A3001900190080006F00680058
:203FF00054004C00420039002C0024002A2880F28580022940F0828021880AF0DFF9064659
:20401000E1E0012940F0DE80002C00F0DB801135A6E0102940F0D680002C00F0D380284638
:204030005030102221460BF075FBCCE0012940F0C980002C00F0C68029468D1D90E0262963
:2040500040F0C080002C00F0BD8005F160002622E8E7012940F0B680002C00F0B3806D1DB1
:204070007EE0602900D13CB9012940F0AB80002C00F0A8800D3573E005F1860021466022C0
:204090000BF048FB012068739DE0012940F09A8020780CF065F996E0012940F09380207878
:2040B000022800F38F800C3528702078022814BF301C01200CF050F985E0072940F08280DD
:2040D000611C684606220BF045FA20786946324605F0D8FF04460A2C10DA0CF039F938B92F
:2040F000204604F053F80AF051FE08F089FE6AE02A46012002F12C05285564E0022662E019
:2041100001295FD1A87B21780028A9735BD12078012858D1E9E7012954D12478072C51DB05
:20413000102C4FDC0B3537E001294BD124780A2C48DA093530E0012944D12478022C41DA05
:20415000083529E000293DD10CF002F910B90BF08CFBC8E701240F351EE0012932D10A350E
:20417000247819E001292DD12478022C2ADAED1D12E0102926D12B4603F1400051E7012971
:2041900020D12478022C1DDA2D1D05E0012919D12478042C16DCED1C2C7014E0012911D1B7
:2041B0002478022C0EDAAD1CF6E702290AD120881435288007E0012904D12478022CD8BFB1
:2041D0006D1CE9DD182630467CBDC0468C1100202DE9FE4F05467B48002400680094C00976
:2041F00005D37948007810B920200AF001F9012D40F0E280DFF80092D9F8DC00012840F072
:20421000D8800220C9F8DC000AF04AFF01200AF0EFF85FEA000805D00120C9F8DC000AF054
:204230004FFFCBE00BF014FEA34602906748684DC0F800B0A86A016801208847012804D1B8
:20425000584608F06FF8012000906248624FC0F800B0386811200BF007FD00B10124102007
:204270000BF002FD08B144F002040F200BF0FCFC08B144F004040B200BF0F6FC20B12868B1
:20429000564E016B308888470A200BF0EDFC20B12868534E016B308888475248012606604D
:2042B0002868816944F0200088474F4806600BF0D5FC00F001010191400814D2286A81685B
:2042D0004A4888478246BAF1040FF7D0BAF1010F04D1286A426845480321904744490868CF
:2042F00020F003000860584600F09AF92B683868986B8047019801280CD0BAF1010F04D1E7
:20431000286A42683948314690473949086840F0030008602F4806602868416920468847A9
:204330000B200BF0A1FC20B128682C4BC16A188888470A200BF098FC20B12868284BC16A80
:2043500018888847274806600322C9F8DC20264BC3F800B02868416B204688470128F9D1E7
:20437000386804200AF044F80446184806603868144800688009FBD30098012802D130465E
:2043900007F0D0FF0BF058FC08200AF031F807460298C9F8DC600BF0D7FF1648008807F01B
:2043B00063FD0AF08DFE57EA040018BF4FF0FF3804E06FF0040801E06FF001084046BDE8B3
:2043D000FE8FC04614100940FC1400200C400940B8010010000222432C2009400A0F010029
:2043F000060F0100282008608001044300400340242208404813010014140020FEB57448FB
:20441000744A0078744C754B75490D283CD8DFE800F0DD07070707D5D558D59494B2B2B903
:20443000146041F204456F494C88AC421FBF4E8BAE424E8EAE4203D11D806B48106074E0A7
:20445000022C6A4D1C804FF4A05635D94FF48067E41B1AD0241F012C1DD94FF47F77E41BD3
:204470001BD04FF44067E41B0FD0A41E012C0CD9241F0AD0641E012C0DD940F2F937E41B92
:20449000012C19D9241F08D098E0022814BF1E80574D156049E0574DFBE7574803681C7A57
:2044B000012C05D141F20240488048834886F0E74E804E834E86ECE700200BF021F883201F
:2044D00080E04E488178FF2954D0182041434C48146040F204450068841C645A1C80641B71
:2044F000012C484B72D94FF47F75641B0FD04FF44065641B032C84BF641F012C0BD9A41EDD
:20451000012C63D940F2FD35641B08D103E0801C41F201444452136004F04CFE05E0002023
:204530000AF0EEFF85200BF00BFF03B0BDE8F04035480078012105F0C5B940F20442488880
:20455000188090421CBF41F2084290423ED041F60402904211D12D4C2D4A25682D4800685E
:204570000023CDE9002355F8086F2B4B0222B0472A490880F7BD4888188000200AF0C0FFEA
:2045900085201FE04888188002280DD940F20442801A1BD040F6FC72801A05D0083815D0BA
:2045B0004FF47F72801AE8D1887B801CC2B2B52AA8BF6620887300204880F7BD00200AF0D4
:2045D0009FFF8420BDE8FE400BF0BABEF7BD00BF6F4F0020204F0020F9FD0000504F00209E
:2045F000CC4C0020204A002059550110615A0110B1540110755B0110104F0020684E002012
:20461000804E0020313901106E4F0020F04E002002000080EC4E002065E30000424F002011
:204630002DE9F84FDFF804B20746ABF13500DFF8F0810068800880F0E280754800680068CB
:2046500080477E490831D1F8009000254FEA29715FEA995201F101010AD2C0F13E0210F13C
:204670000A0F4FEAE202D8BF08229142B8BF111C684BD3F87C21C2F30462162AA8BF203A85
:204690001B68C3F30443162BA8BF203B9A465218162A05DA12F10A0FB8BF6FF0090200E041
:2046B00015225D4B5D4E02F01F0141F4F8511980316811F0030F18BF0125C90828BF45F0A1
:2046D00002050FB145F00405434693F90710411A052904DA9979A94208BF99886FD0DFF837
:2046F00044E10F28A0F10F0829DB08EB0011A1F1F0084FEA28210091072984BF07210091D5
:20471000062988BF06215EF821600424774604EB81043C594FEA950CA41BEE0804F0FF01A4
:2047300024BFC4F3072631446F08AE0824BFC4F3074631446E0828BF01EB146104E00021E1
:204750004FEA950C6F080091009C5EF824E05FEA5C060EF0FF0424BFCEF3072634447E08F6
:2047700024BFCEF3074634446E0828BF04EB1E64009E89B2A8EB06267143803104EB1124D1
:20479000AAEB02010029D8BF0121342209F0FF074A4391B24FF6FF727943B1FBF4F18A429B
:2047B00038BF111C802889B2998005DA10F1800FB8BF6FF07F0000E07F20D8719D711A48CD
:2047D00000681F2918604FF0000008D340F2FF128A4206D24908401C8A42FBD301E01F2138
:2047F0009980134F0F39090940EAC10047EA0001CBF8FB1F0026CBF8FF6FBDE8F88F0D4901
:204810000D4F434608200F609B1D1870BDE8F88FEC0100103C1100506E6208402422084060
:20483000F82400209C130050082009403500094000E7A48030100940FDFDA400AC3F0050D1
:204850002DE9F04F814CE5684AA3071C92460E460FF2E80BADF1140D1CD07F1E06D00090FB
:20487000002240F2331139A310465BE048A000900027019640F22F11029701220397584687
:20489000049705F0A3FC04F1040804F110090127142011E040A00090002701964FF4927109
:2048B0000297012203975846049705F08FFC04F1020804F124092820B0422EDB4846514650
:2048D000324605F0A7FF002FA8F8006032D0A878002808BF32A103D001280CBF37A13DA125
:2048F0002888002700903E46012201913EA3029740F2431103965846049605F067FC0620B9
:204910000090534F207804F14C034946324601902846029705F00CFB0CE0009600224FF4F7
:20493000A6713CA301920290039258460492032205F04CFC05B0BDE8F08FC04664617461A8
:204950005F736572766963652E6300C0536574506172616D657465723A20506172616D6529
:2049700074657220232564206E6F742076616C69642E00C0536574506172616D65746572B4
:20499000203A202573206C656E3A20256400C04653747265616D00C0537472696E6700C04A
:2049B0001B5B33336D4E6F74692F696E642064697361626C65641B5B306D00C04E6F7469D5
:2049D0006669636174696F6E20656E61626C656400C046C0496E6469636174696F6E206542
:2049F0006E61626C656400C0547279696E6720746F2073656E64206E6F74692F696E643AB9
:204A100020636F6E6E48616E646C652025782C20257300C04C656E677468206F7574736955
:204A3000646520626F756E64733A204C656E3A202564204D696E4C656E3A202564204D6182
:204A5000784C656E3A2025642E00C04628150020A57200002DE9F04F044674488E4601688C
:204A700094461F46BEF1000FADF1440D4DD0BCF1000F4AD09EF8002001209040014244D049
:204A9000BCF80000B0F5C15F32D1DCF81400DCF81860674BDCF81C50DFF898A10E904FF077
:204AB00003080DF134090F9618681095C0F3036B59F8046FCEB10021351F05200B4655F83A
:204AD000042FB2F1FF3F10D0924506D0401E01F1040103F10103F2D107E0052B05DA705857
:204AF00020F4702040EA0B407050B8F10108DFD1C4F804E0C4F808C00BF094F94E4D80465E
:204B1000287820B140460BF02FFC00208AE003F0EDF84A49086840F00200086007A80AF0C0
:204B3000BDFF002605F1AC0007AA4549099609F0C3F8444905F1E00007AA09F0BDF807A8DE
:204B50000AF07CFFFF20192107AB3F4A089005F1340009F055F83D4A05F150001A2107AB7A
:204B700009F04EF83A49324605F18800134608F071FA384A05F12000042133460AF07AF80F
:204B90000E2005F017F805F174000AF08FFE05F16C000AF08BFE072385F878312E742E7766
:204BB000AE616E772C48AE60052268612B49EA602B780E70581C287040460BF0D5FBB1464C
:204BD0001FB968460AF086FE6F46386801212060388A61746082786810B940F6C4100E464A
:204BF000E06026741E48A0616061F86800B1A061B86800B160617822494604F1200006F0CB
:204C1000EBFE04F13800494609F01AFF0BA80BF0A3F814490D9404F170004A460BAB08F0E3
:204C300019FA204611B0BDE8F08FC046D4210840541300500200F844701C002000200940B9
:204C50004DF6000071930000A5EE000075B7000011F1000081D30000559700001C2500209B
:204C700093A00000DBFD00002DE9F04F7F4CD4F810B0E56847A391460F460FF2DC08ADF187
:204C9000140DB8B1411E07D00022074640F2491136A31446204652E045A00090002601974B
:204CB00040F24511029604F1020A03965D460496A61D0BE040A000900197002602964FF436
:204CD0009D71039604F1010A0496261D0122404605F07CFA022F2CDA5FB3504649463A463E
:204CF00005F098FD3780A878002808BF34A103D001280CBF39A13FA12888002700903E4613
:204D10000122019140A3029740F2591103964046049605F05BFA07200090554F207804F1CB
:204D300014035146324601902846029705F000F90FE0012200204FF4B1713EA3144600974E
:204D5000019205460294032203904046049505F03DFA05B0BDE8F08F627574746F6E5F7385
:204D70006572766963652E6300C046C0536574506172616D657465723A20506172616D65D1
:204D900074657220232564206E6F742076616C69642E00C0536574506172616D6574657290
:204DB000203A202573206C656E3A20256400C046425554544F4E3100425554544F4E300070
:204DD0001B5B33336D4E6F74692F696E642064697361626C65641B5B306D00C04E6F7469B1
:204DF0006669636174696F6E20656E61626C656400C046C0496E6469636174696F6E20651E
:204E10006E61626C656400C0547279696E6720746F2073656E64206E6F74692F696E643A94
:204E300020636F6E6E48616E646C652025782C20257300C04C656E677468206F7574736931
:204E5000646520626F756E64733A204C656E3A202564204D696E4C656E3A202564204D615E
:204E7000784C656E3A2025642E00C04670160020457100002DE9FE4FDFF8F48198F80110C8
:204E900011B900200AF03CFB0BF08EFA07464FF0000907F6C4170026764D774C11E03046E4
:204EB0000AF036FD417951B12968827901F8092009F101015FFA81F939460BF03DFA761C39
:204ED000F6B220788642EADB98F80100814505D000200AF015FB82200BF032FA98F8010045
:204EF000012840F0A680002601E0761CF6B22078864280F2988030460AF00AFD0746787943
:204F10000028F2D02868B979027891421CBF00200AF0F6FAB87984E02868C05D0AF0F8FC73
:204F300000684268DAF808109068814204BF34467F1C00F08C808EE0296808780123F6B28B
:204F50004FF4C07210E0D8F8047007F5AD7CCF5C02FB07F43CF804E002FB00F43CF80440CF
:204F7000A64538BF38465B1CB342ECDB06464FF6FF700BF0DDF98246F0B20AF0C9FC4FEA5B
:204F90005A010068446840F6C410414301F5A06000270091019015E0F0B20AF0B9FC016816
:204FB0000A78802A03D1DBF81030009A5A610978402906D131498079096801EB40110198FE
:204FD000C8617F1C4F4550DA2868C05D0246F1B29142F6D04FF4C071D8F804304A43991858
:204FF00003F5AD73C9899A5A4B08934202D2891A8945E6DA0AF08CFC0068D0F804B0A268A6
:20501000DBF808104FEA5A0040F6C413A1F6C41103FB00200BF0C4F90028BDD02868C05D51
:20503000C0B2BDE8FE8F00200AF06AFA82200BF087F998F8011028680BF076F9286800787E
:205050000AF066FC00240168D1F804A00127661C4F45FFF661AFE4B2002C1CBFF0B2002840
:205070007FF46AAF2868067881E73046D8E700BF684E0020004F00207B4F0020844E002009
:205090002DE9FE4F0E468246307AC10693461C464FF000090CD558460BF042F9030000F0E5
:2050B000E9800A223146504698475FEA00094DD13078DDF838800D9D0C9F02281AD1706878
:2050D0000178407801EB002189B24FF42052891A012910D9891E3AD0491E14D0FD397BD05F
:2050F000491E00F08280491E6ED0491E74D0491E00F09680ACE0002D2AD1F068017839804C
:205110000278416888E0002D22D101203880F0680178217000217089401C80B20BF0FCF802
:20513000398860B10278921C51183980418961704189090AA17002784168E01C6DE0091D28
:20515000398004220021601C0AF092FE94E0002D67D1F0680588042139802570290A617004
:2051700028460DF102010BF0D7F85FEA000821D0D8F80C50BDF802204FF6FF766B463146BF
:205190000BF0C6F850B998F80030D8F804203C4802210BF0B9F808B9ADF8006028780228A6
:2051B0000AD169680222201D0AF0B4FA3888801C388001E0ADF80050BDF80000A070BDF8C6
:2051D0000000000AE07057E0002D2AD1F068016850460AF023FC02E01DBBF06800880221D9
:2051F00039802070000A607046E0F0680AF042FE80B2A842B8BF4FF007093DDB854208BF3C
:20521000002205D008EB05028242B4BF4246421B3A8092B2F068411920460AF07BFA2BE0E1
:2052300015B14FF00B0927E0F0680721398001782170417861704188A1704188090AE1706A
:2052500001792171C1886171C088000AA07113E058460BF055F85FEA00090BD00F98029075
:20527000CDF8048000953B46224631465046C847814601E04FF00E094846BDE8FE8F00BFBE
:2052900016110100F8B57E4F04463868C16E0025002940F0F18010200AF030FC3968002835
:2052B000C86600F0E7808E6E102221460AF032FA39680878002840F08E80CA6ED6F8980079
:2052D00012F80CCF00F001030CF0010C634518BF0023400843EA4000C6F89800C0F3400339
:2052F000D2F800C0CCF3400C634506BF430803F00103002320F0020040EA4300C6F8980062
:20531000C0F38003D2F800C0CCF3800C634506BF830803F00103002320F0040040EA83009F
:20533000C6F89800C0F3C003D2F800C0CCF3C00C634506BFC30803F00103002320F0080012
:2053500040EAC300C6F89800C0F30023D2F800C0CCF3002C634506BF030A03F0010300231B
:2053700020F4807040EA0320C6F89800C0F34023D2F800C0CCF3402C634506BF430A03F0FE
:205390000103002320F4007040EA4320C6F89800C0F38023D2F800C0CCF3802C634506BFB7
:2053B000830A03F00103002320F4806040EA8320C6F89800C0F3C0231268C2F3C0229342A3
:2053D00006BFC20A02F00102002220F4006040EAC220C6F898008A6E92F89500030718D531
:2053F000C86E4368C3F3C00098B1C87840F00800C870D6F8981023480140C6F89810386825
:20541000C06EC16821F48071C16049084900C16003E092F8330001282AD0607800281CBFA5
:205430007178002908D13968CA78130708D5002804BF7078002803D03A68052111711CE083
:205450006068C0F3800040B996F8950010F0040002D10120087110E00AD00878002819BF6A
:2054700030782178317820780AF046FF054604E0182502E0132500E011252846F2BD00BFE3
:20549000304F0020FEFEFFFF2DE9F04F09AF3D7981461C468A460846ADF1240D3F8806922B
:2054B00007F0A0FE0026FF214BA3DFF8C8810790089108B3401E0ED030460090019040F203
:2054D000ED110290032203903CA3049037A004F07DFE0A2066E051A00090CDF804904FF42E
:2054F000F47102940122039730A0049504F06EFE404600F1040B0FE04AA00090CDF80490D3
:205510004FF4ED7102940122039728A0049504F05DFE404600F1020B05901FBB07EB0408E6
:20553000B8F1020F18DAB8F1000F03D1182D10D0122D0ED0DAF80C0006992246C01905F02E
:2055500069F9B8F1000F1BD0ABF800800798089016E040F2012101E04FF4FC71304633A3B5
:205570000D2604E0304640F2F31139A307260090019002900390032204900CA004F026FE8C
:205590000898FF280DD00598806850B1056845B1E419A0B20090079A069B41F2101148466B
:2055B000A847304609B0BDE8F08FC0466C65645F736572766963652E6300C04641747472DC
:2055D000696275746520776173206E6F7420666F756E642E00C046C0577269746541747462
:2055F000724342203A20257320636F6E6E48616E646C6528256429206C656E282564292045
:205610006F666673657428256429206D6574686F64283078253032782900C0464C45443174
:2056300000C046C04C45443000C046C0496E76616C69642076616C7565206C656E67746823
:20565000207761732072656365697665642E00C0416E20696E76616C6964206F6666736591
:205670007420776173207265717565737465642E00C046C0E01700202DE9F0410446764DEA
:20569000A178A869ADF1180D891F00F0DE80C91E00F0C980491E5FD0491E48D0C91E3CD0EF
:2056B000481E40F0D580287A697AB8B96878002831D0A0880AF01CFE071C00F0C980A07A3E
:2056D00040080FD3787968B1E168890A0AD2B91D01AA04F0D7FC0A2804D10321A0880AF039
:2056F00003FEB5E0287B022802D1A07A0009F4D3A088797904F1080201F020FAA86900281D
:2057100000F0A6804368002B00F0A28000210A46A08898479CE00521E0E7002800F098806A
:205730004368002B00F0948062780221F0E70AF0D5F9002800F08C80A86950B1076847B146
:20575000206900906189227B637BE01C3C46A0477EE060890121C2E767784FF00008002FEF
:2057700052D1A17949084FD3EF69002F4CD101A841460E220AF07CFBA0880AF0B9FD071CF9
:2057900066D0606940B97879B91D06228DF80A0001A809F0BFFF19E06669307C062206F190
:2057B00011018DF80A0001A809F0B4FF07F10C00B91D062209F0AEFFB81D062206F1110135
:2057D00009F0A8FF307C40F002007871A1799DF81120C1F3800010438DF81100080905D36C
:2057F0009DF8110040F008008DF8110001A8214600F024F928B92878022104F063F840468F
:2058100027E0A8694FF0150810B3436803B3A088627801219847B8F1000F19D0A869436880
:205830000321424674E7E078211D002204F02AFC0A280DDA410001EB800004F10C02253061
:205850000421C0B202F03AFF02E0A08807F07AFC012006B0BDE8F0818C1100202DE9F04F00
:20587000754F1E46ADF1340D01914FEA960902923D680090710809F1020221F0010105EB64
:205890008200091D0390901805EB80000490501805EB80038018059305EB8000079026F0E9
:2058B000030000F1080802EB080005EB800340180893801805EB80000990C6F39C00800003
:2058D000083002EB4000411805EB800305EB810B0A938918831805EB8104404405EB8303C3
:2058F000C6F3990105EB80008900069038680B930A010021803206F06FF84849DFF820A114
:2059100009682846AAF1880290470746B94518BF6FF001007ED128465546394605F16802E3
:2059300090470198314609F0CBFC002818BF012070D10298314609F0C3FC002818BF022065
:2059500068D103980199A84704980299A847009881680598A847334B0399059A20469946A9
:20597000C847012802D1BD0066590EB1032051E020460021424606F02FF80499059A2046AF
:20599000C847012801D166590EB1042042E0274B254D079803991E462A46B0470898049902
:2059B0002A46B047079909980A46B0470A980999079AB0471E4D0B9807992A46B047204691
:2059D0000021282206F008F81A4B0A990B9A20469946C847203520462A460146C847089933
:2059F00058460A46B04706980021424605F0F4FFFDB25846002D0CBF0122FAB20021635C8F
:205A1000455CAB4218BF052004D1491C521EC9B2F5D100200DB0BDE8F08FC0468C4F0020FF
:205A3000B9DB0010C9DE0010881A0020F9E00010FC0F0100C9E60010884F00202DE9FF4732
:205A50008146714CDFF8BCA1E069884600284CD1B9F1000F00F09480B8F1000F00F09080AD
:205A7000484609F087F805460A2D23DAD8F814702574002F37D0680010216A4600EB8500B5
:205A90002330C0B209F067FC90B950460778FF211022684609F087FD50B93FB999F8060062
:205AB000494600F001000AF01BFC01E00120A074E0691AE004F1E6070A2600253846FF2117
:205AD000062209F070FD68B9761E07F10E0705F10105F3D1607C002804BF0A2020744FD002
:205AF00094F836502574E06900E0257C0A2D47DA002835D168000E214A4600EB85002030B4
:205B1000C0B202F0DBFD207C07F0A4FC6846FF2110220AF0ADF9207C10216A467030C0B2D7
:205B300002F0CCFD217C0E220801A0EB410000194946E63009F0EEFDD8F814206AB15046A1
:205B5000007840B9107C02F11101002300F001000AF0C2FB01E00120A074C4F81C804CE0CE
:205B70008268002A3ED10269002A2FD142690ABBC2683AB9A07B08B108F0C4FD09F0DCFB73
:205B900001203BE06800102100EB85002430C0B202F094FDE769217CFA68480000EB810064
:205BB000103225300421C0B202F088FDE1690020C86022E06800102100EB85002330C0B2CE
:205BD00002F07CFDE1690020486116E068001C2100EB85002230C0B202F070FDE16900209F
:205BF00008610AE068001C2100EB85002130C0B202F064FDE1690020886000200090BDE870
:205C1000FF87C0465A4F00208C1100202DE9F043664C62680546880FADF1140DC0F0C2800A
:205C30005068406808B1804762685168886808B9C86868B109F058FE5168886810B1804777
:205C500060684168C86800B18047594808F0FEFF584809F01BFF584940F60A0CA1F800C08C
:205C7000002048800A7B60F303020A7348604A7B4FF0010969F303024A73AB686E7C588029
:205C90001A88A2F60202CAB141F21E07D21B15D041F6E677D21B012A20D85A7E012E60F313
:205CB00082025A7606D01A8B22F47C7242F434721A8313E01A8B60F30912F9E75A7C012E9D
:205CD00060F382025A7405D01A8A22F47C7242F4347202E01A8A60F309121A82D5F80880D1
:205CF00068746246464600E03E46776817B13B889A42F9D17160727B60F303027273E76EC0
:205D100047B1FA681288ACF1070393421AD05B1C934217D02F8CB7B1686205F12002508011
:205D300095F82C3060F3030385F82C3095F82D3069F3030385F82D304A604A7B60F303024B
:205D50004A7300E0A0601D4801688768C568009110226946406B019720F0784040F080502F
:205D700003901748029504F055FD09F0BDFD15486061607F68B914480068016848468847E9
:205D900001280CD0707B69F3030070730F4F676105E007F035FE0028FBD00AF051F84046D0
:205DB00009F074FE05B0BDE8F083C046701C00200100070601010E04982400204C1300503C
:205DD00018000021CD300000E0010010B1CC000066480178002900D170472DE9F843491E7F
:205DF000032984B004D9891F012940F2BC80B4E05F4CDFF880912168DFF87C8108685F4E75
:205E100000F10805062205F1080102A809F082FC0622A91C684609F07DFC2878C1091D2771
:205E300000F00F02032AC0F3801537D16079C0F3800081421ED12169062202A809F0D0F9F8
:205E500000280AD0694628460AF0CAFA002804D0314668460AF0C0FAFF2879D04743D8F8B6
:205E70000000807AF519002818BF02280AD0012818BF03286CD1F25D691C48460AF028FA21
:205E9000102865D06B46EA1D294648460AF01CFA06226946E81D09F03DFC59E000F00F007A
:205EB000052860D16079C0F38000814250D12169062202A809F094F9002849D06946284644
:205ED0000AF08EFA002843D0314668460AF084FAFF283DD04743D8F80000807AF51900289A
:205EF00018BF01280AD0022818BF032830D1F25D691C48460AF0ECF9102829D040F20240A5
:205F100007F0F8FE6B46EA1D294648460AF0DCF906226946E81D09F0FDFBD8F80010F05D06
:205F300088760622D8F80000691C143009F0F2FB1348144A41F204414180418341861248D5
:205F500001801249124808600121107803F0BAFC21680A680020107105E0002009F0D0FADC
:205F700086200AF0EDF905B0BDE8F0836F4F0020F44B0020CC470020104F0020AC450020BE
:205F9000204A00206E4F0020504F0020204F0020595501102DE9FE4F664D654C664F286871
:205FB000626A066904F1200339460120B04710B1286880688047DFF89481DFF8809108F01B
:205FD000D1FE5FEA000B03D004F0FCFF4FF0FF3B002637E00098616910F8062CA0F10C07D6
:205FF000032A02D171B388472CE0A06A9DF805C00A213246401E10F8013F9C4506D0491EC7
:2060100002F10102F7D14FF0FF0A01E05FFA82FA2868BAF1FF0F00F1080011D0387908F0E8
:2060300057F8B979012904D0022904BF0099887001E0009908700099504609F0F1F801E06E
:20605000006880472868C3690DF105016A4601A898470028BED0D9F800007700C35B23B911
:20607000761CF6B20A2EF8DB22E00A2E20DAD8F808008047D9F80010002231F807A0CA5308
:20609000D8F80C1088472E4850F8262066705146304690470646FF206070D8F8080080479D
:2060B000D9F800107A5A16437E52D8F80C10884708F058FE0746BB451AD0D8F8080007B91A
:2060D000204FE169B94238BF0F1C804782462868016A206A8847626A286817491A4B521C68
:2060F0006262C6683846B047D8F80C1050468847E7682968A06814318FB9D9F800000A2761
:206110000026835B33B10969A06888472968D9F8000014317F1E06F10206F2D103E00969E3
:2061300088472968143109684FF0FF30884746E7541A00204C1C002019E10000102500206A
:20615000B81101008EC2F528741A0020D41500202DE9F04F6C4CA068ADF13C0D002800F02D
:20617000858004F1B80B4FF00D0A4FF00A094FF0010878E00AF0A4F82178CA0002EB4112D1
:206190005A44B2E8E01004ABA3E8E010E0CAE0C364CA4F1C07F01F0183E8640004F10C05CB
:2061B000627821708A4208BF84F802800AF0DCF8BDF83630A6212FA2284609F001FA284682
:2061D00009F0D8FB049F4619B8B209F039F84AA20CCA02F079F94AA20CCA02F075F907F00E
:2061F000F1F9009025A2A91B3B0C3046A63109F0E7F9284609F0BEFBBDF834704019BF1E6E
:2062100004D07F1E14BF21A229A200E031A206990091059B2F1A07F1A60109F0D1F9284600
:2062300009F0A8FB4219A0682946521B09F0A8FD099800900A9E01960B9F02970C9B0393E5
:20625000089B079AA621284609F0BAF9284609F091FB421902F801AB02F8019BA068294608
:20627000521B09F08DFDA078002883D00FB0BDE8F08FC04623253036752000C05B2025649B
:206290002E25303375205D2000C046C01B5B33323B316D494E464F3A201B5B33303B316D74
:2062B0002825733A256429201B5B306D00C046C01B5B33313B316D4552524F523A201B5B1C
:2062D00033303B316D2825733A256429201B5B306D00C0461B5B33333B316D5741524E4957
:2062F0004E473A201B5B33303B316D2825733A256429201B5B306D00000000000000F03EE0
:206310000000000000408F40080200202DE9F04FADF1240D079001F0E9FC6048007808F08B
:2063300095FD5F4D0024012806D90C3804D0401E0ED0401E09D006E009F050F9022804BF43
:2063500001210C1C06D0696805E005211F2401E0032107246960534A1068C0F38150012833
:2063700006D152F80C0C0127020E07FA02F0044309F084FB524AFF234018401E471C28608B
:206390007F1E02F8013BFBD1079A1268002702F0FF03FE2B20D0DDF81CC096463B460126CA
:2063B0000EF0FF02FF2A10D0904205D3914203D806FA02F2144201D002206CE017430EF08C
:2063D000FF02DFF8FCE00EF802305CF804EF5B1C0EF0FF02FE2AE5D1092003F0EBFB079885
:2063F0000121A86005F1280008F02AFB05F19806A8464FF0010A4FF0040B0025A9460AFAF6
:2064100005F0044216D1074204BF05F0FF0141F4C04104D02A480799405D51F820102248AD
:2064300002F0EEFDE8B24FF0FF3109F007F8C6F8009001E0C6F800B0D8F800006D1C361D25
:206450008542DCD904A809F0F9FA184C184A2078102104AB059008F10C0007F0D1FB6846CF
:2064700009F01CFBCDF80C906A4660681149029008F1640007F020FC0F4951F80D0C20F4F9
:20649000F85040F4005041F80D0C0C4FC1F8FFAF4846C7F800A009B0BDE8F08F23250020DA
:2064B00000130020B43F0050007FC7674814010069F40000D1D900000D300940080009406E
:2064D000441300202DE9F04F0746ADF1140D0393002F02920E9801910F9C049000F0B680DE
:2064F000081C00F0B380101C00F0B080181C00F0AD800498002800F0A980002C00F0AB8084
:20651000206A002800F0A280564D666A281D0068002E00F09B80A16A09F0CEFE40B2002864
:2065300008BF6FF0020700F08D8084F82C002078618800EB80000918143188B2216A884791
:206550004749086030B92846406809F0B1FE4FF0FF3777E08B46628823786088DBF800109F
:2065700025789E1800EB010A701800F1040805EB450002EB4306851876186D18C01805F154
:206590000C098018401800F11005204606F0AEFF2078C01C8010CAF800002078C01C80100D
:2065B000C8F8000020780836C01C801030602078C01C8010C9F800002078C01C80102860E8
:2065D000227839460AF1040004F024F92278019908F1040004F01EF922780299301D04F0D0
:2065F00019F92378204641463246FFF737F9071C12D100955046414632464B4609F054FE47
:2066100047B22278039809F1040104F003F922780498291D04F0FEF821786288DBF8000091
:2066300001EB81015218002105F0D6F9616ADBF8000088470B48406809F03AFEF8B2992889
:2066500008BF002784F82C70384606E01CB16FF0010084F82C006FF0010005B0BDE8F08FB2
:20667000884F0020801A002010B5401EADF1280D30D0401E28D0801E22D0401E1CD0401ED5
:206690000DD0401E07D0401E5BD1002040F28A3131A304464CE040F27E3131A317E040F219
:2066B000153006A901F0E0FC06A806F0C3FD002440F2793131A33BE040F2863139A306E00B
:2066D00040F282313DA302E040F26F3140A3002420462DE04FF4417008A901F0C5FC9DF8CB
:2066F00021308DF8193000248DF81C408DF81B409DF822208DF81A209DF825108DF81F1072
:206710009DF820008DF818009DF824309DF823208DF81E303C498DF81D2006AB5868486023
:206730001A680A6008A806F085FD40F26A312BA30090019402940122039403A0049403F0F7
:2067500045FD0AB010BDC04670726F6A6563745F7A65726F2E6300C04572726F7200C046E3
:20677000436F6E6E656374656420616E64206164766572746973696E6700C046436F6E6ECF
:2067900065637465642E205065657220616464726573733A201B5B33326D25731B5B306DB7
